S01B0000476574426C7565746F6F7468576F726B696E672E7372656352
S113000045C0000060C000005EC000005CC000008D
S11300105AC0000058C0000056C0000054C0000080
S113002052C0000050C000004EC000004CC0000090
S11300304AC0000049C0000046C0000044C000009F
S113004042C0000040C000003EC000003CC00000B0
S11300503AC0000038C0000036C0000034C00000C0
S113006032C0000030C000002EC000002CC00000D0
S11300702AC0000028C0000026C0000024C00000E0
S113008022C0000020C000001EC0000011241FBEBA
S1130090CFEFD0E4DEBFCDBF11E0A0E0B1E0E4E0FB
S11300A0F2E000E00BBF02C007900D92A430B1074C
S11300B0D9F721E0A4E0B1E001C01D92A930B20754
S11300C0E1F77FD09DC09CCF1F920F920FB60F9285
S11300D011248F939F93AF93BF93809104019091C8
S11300E00501A0910601B09107010197A109B10989
S11300F08093040190930501A0930601B093070136
S1130100892B8A2B8B2B99F481E0809308018091B1
S1130110000190910101A0910201B091030180932B
S1130120040190930501A0930601B0930701BF91C8
S1130130AF919F918F910F900FBE0F901F901895C4
S1130140181619065CF00895000021503109E1F7F2
S11301504F5F5F4F8417950719F4089540E050E00E
S113016027E033E0F1CF10988BB9119A0000119871
S113017082E090E0E5CF089581E0F5CF089584E62C
S113018090E0DEDF88E3EFDF86E0EDDF8FE0EBDF9A
S113019081E0E9DF8AE090E0D3CF08959093C50031
S11301A08093C40088E18093C1008EE08093C200F4
S11301B00895E0ECF0E0908195FFFDCF8093C600B8
S11301C008958FEF81B912B88AB91BB880EF87B947
S11301D08FE088B9D4DFD0DF87E690E0DFDF88E402
S11301E0E8DF85E4E6DF8CE4E4DF8CE4E2DF8FE43F
S11301F0E0DF81E2DEDF8DE0DCDF8AE0DADFEFCF13
S1070200F894FFCF9C
S107020401000000F1
S9030000FC
