:1000000045C0000060C000005EC000005CC0000091
:100010005AC0000058C0000056C0000054C0000084
:1000200052C0000050C000004EC000004CC0000094
:100030004AC0000049C0000046C0000044C00000A3
:1000400042C0000040C000003EC000003CC00000B4
:100050003AC0000038C0000036C0000034C00000C4
:1000600032C0000030C000002EC000002CC00000D4
:100070002AC0000028C0000026C0000024C00000E4
:1000800022C0000020C000001EC0000011241FBEBE
:10009000CFEFD0E4DEBFCDBF11E0A0E0B1E0E4E3FC
:1000A000F2E000E00BBF02C007900D92A430B10750
:1000B000D9F721E0A4E0B1E001C01D92A930B20758
:1000C000E1F793D0B5C09CCF1F920F920FB60F925D
:1000D00011248F939F93AF93BF93809104019091CC
:1000E0000501A0910601B09107010197A109B1098D
:1000F0008093040190930501A0930601B09307013A
:10010000892B8A2B8B2B99F481E0809308018091B5
:10011000000190910101A0910201B091030180932F
:10012000040190930501A0930601B0930701BF91CC
:10013000AF919F918F910F900FBE0F901F901895C8
:10014000181619065CF00895000021503109E1F7F6
:100150004F5F5F4F8417950719F4089540E050E012
:1001600027E033E0F1CF109885B9119A000011987B
:1001700082E090E0E5CF089581E0F5CF089584E630
:1001800090E0DEDF88E3EFDF86E0EDDF8FE0EBDF9E
:1001900081E0E9DF8AE090E0D3CF0895109A85B935
:1001A000119A0000119881E090E0CACF0895E1EC27
:1001B000F0E08081886180838EE08093C20083E3D9
:1001C0008093C4001092C5000895E0ECF0E09081A7
:1001D00095FFFDCF8093C6000895E0ECF0E08081AC
:1001E0008823ECF78091C60008958FEF81B912B88B
:1001F0008AB91BB880EF87B98FE088B9D8DFBFDF35
:10020000BBDF81E4E2DF84E5E0DF8BE2DEDF8EE46A
:10021000DCDF81E4DADF8DE4D8DF85E4D6DF8FE34D
:10022000D4DFC0E1D0E0D9DFB9DF2197E1F7E9CF32
:04023000F894FFCF70
:0402340001000000C5
:00000001FF
