S00D00006C616231302E7372656387
S11300005DC0000078C0000076C0000074C000002D
S113001072C0000070C000006EC000006CC0000020
S11300206AC0000068C0000066C0000064C0000030
S113003062C0000096C000005EC000005CC000000A
S11300405AC0000058C0000056C0000054C0000050
S113005052C0000050C000004EC000004CC0000060
S11300604AC0000048C0000046C0000044C0000070
S113007042C0000040C000003EC000003CC0000080
S11300803AC0000038C0000036C000007C023502CF
S113009085023B02320243026A024C0251025102BF
S11300A05703D8026C03DE02D502EC021803E70200
S11300B02C03F4024503F9026F03FF0211241FBE4F
S11300C0CFEFD0E4DEBFCDBF12E0A0E0B1E0E8E3C3
S11300D0F9E000E00BBF02C007900D92A831B10710
S11300E0D9F722E0A8E1B2E001C01D92A935B20718
S11300F0E1F759D31FC484CF6093000170930101C9
S1130100809302019093030160934F027093500215
S1130110809351029093520208958BE08093810062
S11301208DE790E0909389008093880082E080932B
S11301306F001092850010928400809100019091CC
S11301400101A0910201B091030180934F029093A9
S11301505002A0935102B09352028FB780688FBFB0
S113016008951F920F920FB60F9211248F939F93AD
S1130170AF93BF9380914F0290915002A09151028E
S1130180B09152020197A109B10980934F02909353
S11301905002A0935102B0935202892B8A2B8B2BCD
S11301A099F481E0809353028091000190910101C0
S11301B0A0910201B091030180934F0290935002E9
S11301C0A0935102B0935202BF91AF919F918F912E
S11301D00F900FBE0F901F901895181619065CF01B
S11301E00895000021503109E1F74F5F5F4F8417F4
S11301F0950719F4089540E050E027E033E0F1CF8B
S113020010988BB9119A0000119882E090E0E5CF24
S1130210089581E0F5CF0895813118F48158F0CF25
S113022008958155EDCF089584E690E0D6DF88E304
S1130230E7DF86E0E5DF8FE0E3DF81E0E1DF8AE00E
S113024090E0CBCF0895109A8BB9119A00001198C1
S113025081E090E0C2CF08950F931F93CF93DF9373
S1130260182FEB01D6DF8881882351F001E0010FBC
S1130270812FD2DF8991E7DF102F88818111F6CF9A
S1130280DF91CF911F910F91089582309105B1F0C4
S11302902CF4009749F0019759F07CC08330910504
S11302A099F00497B9F076C081E0809355027EC03E
S11302B080915502813009F079C011C080915502B6
S11302C0813009F073C02AC080915502813009F051
S11302D06DC042C080915502813009F067C06EE064
S11302E071E081E0B9DF80915702813431F482E01A
S11302F08093550282E090E00895823431F484E0E2
S11303008093550282E090E00895833409F045C05B
S113031083E08093550282E090E008956EE171E0FD
S113032081E09ADF80915702813431F482E0809336
S1130330550283E090E00895823431F484E08093A0
S1130340550283E090E00895833451F583E080936F
S1130350550283E090E008956AE271E081E07CDF79
S113036080915702813431F482E08093550284E015
S113037090E00895823431F484E08093550284E05F
S113038090E00895833479F483E08093550284E007
S113039090E0089580E090E0089582E090E0089570
S11303A083E090E0089584E090E0089581E090E097
S11303B008958FEE88B90000309B29C0319B29C075
S11303C0329B29C0339B29C08FED88B90000309B34
S11303D026C0319B26C0329B26C0339B26C08FEBA0
S11303E088B90000309B23C0319B23C0329B23C0BB
S11303F0339B23C08FE788B90000309B20C0319B1A
S113040020C0329B20C0339B20C080E0089581E34C
S1130410089584E3089587E308958AE2089582E3C2
S1130420089585E3089588E3089580E3089583E3B8
S1130430089586E3089589E3089583E2089581E4A5
S1130440089582E4089583E4089584E40895CF939D
S1130450DF93EC018A30910508F05AC0FC01EA5B95
S1130460FF4F5FC2C5E0D0E05FC08091550282308B
S113047009F05AC053C09DDF8093570281548330E2
S113048008F052C019C095DF809357028134D9F027
S1130490823409F049C042C0809157028332D1F4BA
S11304A024C087DF809357028332A9F581E08093CB
S11304B05502C1E0D0E038C065E371E081E0CCDEF4
S11304C0C4E0D0E031C062E571E081E0C5DEC6E0A1
S11304D0D0E02AC06EDF80935702882381F08332F4
S11304E089F0B1DEC7E0D0E01FC064E671E081E0CE
S11304F0B3DEC8E0D0E018C0C1E0D0E015C0C7E06A
S1130500D0E012C0C7E0D0E00FC0C3E0D0E00CC020
S1130510C0E0D0E009C0C9E0D0E006C065E771E002
S113052081E09ADEC2E0D0E0CE01DF91CF91089560
S1130530CF93DF93EC018130910561F01CF4892B9A
S113054001F105C082309105F9F0039741F0C0E054
S1130550D0E01CC0809155028330C1F40BC029DF68
S113056080935702833291F481E080935502C1E075
S1130570D0E00CC062E971E081E06EDEC2E0D0E060
S113058005C0C1E0D0E002C0C3E0D0E0CE01DF91FD
S1130590CF910895CF93DF93EC018E30910508F04D
S11305A03DC0FC01E05BFF4FBCC1C5E0D0E0A0C092
S11305B080915502843009F09BC094C0FADE809388
S11305C05702813471F1823409F092C050C0809195
S11305D05702833269F539C0ECDE809357028154A7
S11305E0833008F085C04AC0809157028332A1F558
S11305F057C080915702833209F047C051C0D9DEF9
S113060080935702813409F46DC0833209F070C0BD
S113061081E080935502C1E0D0E06AC0C0E0D0E040
S113062067C062EA71E081E017DEC6E0D0E060C036
S1130630C0DE80935702882309F43CC0833209F456
S11306403CC001DEC7E0D0E053C064EB71E081E060
S113065003DEC8E0D0E04CC0ACDE809357028823B0
S113066079F1833281F1EFDDC9E0D0E041C065E783
S113067071E081E0F1DDC4E0D0E03AC066EC71E005
S113068081E0EADDCAE0D0E033C093DE8093570214
S11306908823E1F08332E9F0D6DDCBE0D0E028C056
S11306A068ED71E081E0D8DDCCE0D0E021C0C1E0AC
S11306B0D0E01EC0C7E0D0E01BC0C7E0D0E018C047
S11306C0C9E0D0E015C0C9E0D0E012C0CBE0D0E072
S11306D00FC0CBE0D0E00CC0C3E0D0E009C0CDE057
S11306E0D0E006C067EF71E081E0B6DDC2E0D0E0A3
S11306F0CE01DF91CF9108958130910569F01CF40A
S1130700892B39F036C08230910561F0039781F06E
S113071030C01092580215C04CDE809354028111EF
S113072033C02DC046DE80935602882391F136C033
S1130730809154028093570280915802893089F441
S11307401BC0809158028F5F8093580281E090E033
S11307500895809158028F5F8093580282E090E060
S11307600895809158028F5F8093580283E090E04F
S1130770089580E090E0089580E090E008958091ED
S113078058028930C9F3DDCF80915802893009F7C6
S1130790F3CF80915802893079F3E3CF80915802E6
S11307A08930B9F6E9CFCF93DF93CDB7DEB72A9777
S11307B00FB6F894DEBF0FBECDBF8FEF81B912B86C
S11307C08AB91BB880EF87B98FE088B98AE0E4E082
S11307D0F1E0DE01119601900D928A95E1F7E4E4CF
S11307E0F2E010828AE090E0A0E0B0E0818392839E
S11307F0A383B48385839683A783B08785E491E03C
S113080092878187E9E3F2E0108282E090E0A0E041
S1130810B0E081839283A383B48385839683A78383
S1130820B08727E232E032872187EEE2F2E01082DD
S113083081839283A383B48385839683A783B087BC
S11308402AEC32E032872187E3E2F2E010828183EE
S11308509283A383B48385839683A783B08788E92F
S113086092E092878187E8E1F2E0108281E090E0F3
S1130870A0E0B0E081839283A383B48385839683CD
S1130880A783B0878CE793E09287818764E670E062
S113089080E090E031DC41DCC7DCBBDC7E018BE036
S11308A0E80EF11CDE0111966D01F6010191119122
S11308B06F01D80115964D915D916D917C911897BA
S11308C011968D919D910D90BC91A02D48175907BB
S11308D06A077B0781F4F80180810184F285E02DA9
S11308E0082E000C990B0995D8018C93F8011582F8
S11308F0168217821086F80185819681A781B085BA
S11309000196A11DB11D85839683A783B087CE145C
S1130910DF0459F6809153028823E1F310925302C5
S1130920C1CFEE0FFF1F0024001C0BBE0790F691F1
S10B0930E02D0994F894FFCFB7
S113093801000000440239022E0223021802412E4B
S1130948205472616E73616374696F6E7300422E12
S11309582053657474696E677300432E2050726F58
S11309686669747300446F6E6520207C202041649E
S1130978644974656D2041202020207C202020209B
S11309884200456E746572205061796D656E743AE3
S113099820202000746F74616C2D7061793D636848
S11309A8616E6765004120202020204220202020FD
S11309B84320202020242020202020242020202000
S11309C82400546F74616C2050726F666974733AB2
S11309D82000656E746572206F6C6420636F6465B3
S11309E83A202000736574206E657720636F646510
S11309F83A2020202000456E746572205072696385
S1130A08653A2020202020004120202020207C201E
S1130A182020232020202073657474696E67732056
S1130A287C206D656E7500202041202020207C20CC
S1130A38202042202020202020636F6465207C2011
S10B0A4820206974656D730040
S9030000FC
