:10000000ACC00000C9C00000C7C00000C5C00000EF
:10001000C3C00000C1C00000BFC00000BDC00000E0
:10002000BBC00000B9C00000B7C00000B5C00000F0
:10003000B3C00000E7C00000AFC00000ADC00000CA
:10004000ABC00000A9C00000A7C00000A5C0000010
:10005000A3C00000A1C000009FC000009DC0000020
:100060009BC0000099C0000097C0000095C0000030
:1000700093C0000091C000008FC000008DC0000040
:100080008BC0000089C0000087C000001502170265
:1000900019021B021D021F02210223022502460231
:1000A00032023402360238023A023C023E02400278
:1000B00042022D078E033007AA038B03E4038F054A
:1000C000EE03F403F403B00A8F07AB074D0963098D
:1000D0006A09810987098E0907634236B79BD8A749
:1000E0001A39685618AEBAAB558C1D3CB7CC57635D
:1000F000BD6DEDFD753EF6177231BF000000803F0B
:1001000008000000BE922449123EABAAAA2ABECD26
:10011000CCCC4C3E00000080BEABAAAAAA3E000098
:100120000000BF000000803F000000000008417890
:10013000D3BB4387D1133D190E3CC3BD4282AD2BC7
:100140003E68EC8276BED98FE1A93E4C80EFFFBEBF
:1001500001C4FF7F3F000000000011241FBECFEF4D
:10016000D0E4DEBFCDBF12E0A0E0B1E0E0E4FFE10B
:1001700000E00BBF02C007900D92AC30B107D9F779
:1001800022E0ACE0B2E001C01D92A837B207E1F76F
:100190000E94370B0C949E0F33CF60930001709335
:1001A0000101809302019093030160936D027093AB
:1001B0006E0280936F029093700208958BE080939B
:1001C00081008DE790E0909389008093880082E021
:1001D00080936F001092850010928400809100013E
:1001E00090910101A0910201B091030180936D02F1
:1001F00090936E02A0936F02B09370028FB78068E5
:100200008FBF08951F920F920FB60F9211248F93F4
:100210009F93AF93BF9380916D0290916E02A091D6
:100220006F02B09170020197A109B10980936D022C
:1002300090936E02A0936F02B0937002892B8A2B69
:100240008B2B99F481E08093710280910001909151
:100250000101A0910201B091030180936D0290937E
:100260006E02A0936F02B0937002BF91AF919F9105
:100270008F910F900FBE0F901F90189518161906AA
:100280005CF00895000021503109E1F74F5F5F4FA6
:100290008417950719F4089540E050E027E033E013
:1002A000F1CF109885B9119A0000119882E090E082
:1002B000E5CF089581E0F5CF0895813118F4815894
:1002C000F0CF08958155EDCF089584E690E0D6DF14
:1002D00088E3E7DF86E0E5DF8FE0E3DF81E0E1DF71
:1002E0008AE090E0CBCF0895109A85B9119A00006A
:1002F000119881E090E0C2CF08950F931F93CF93A0
:10030000DF938B01883068F4880F880F880F805C3A
:10031000C8DFE801085F1F4F8991E6DFC017D107EA
:10032000D9F780E8BEDFDF91CF911F910F9108953B
:100330000F931F93CF93DF93182FEB01BBDF8881BF
:10034000882351F001E0010F812FB7DF8991CCDFC5
:10035000102F88818111F6CFDF91CF911F910F91DE
:1003600008958130910559F024F4892B09F444C093
:100370004CC08230910549F0039771F046C020913E
:100380007302213009F046C00BC0809173028130A6
:10039000E9F081E090E00895809173028130C1F529
:1003A00066E171E081E0C4DF80917702813431F44D
:1003B00082E08093730282E090E008958234F9F441
:1003C00084E08093730282E090E0089566E271E039
:1003D00081E0AEDF80917702813431F482E0809356
:1003E000730283E090E00895823461F484E08093A6
:1003F000730283E090E0089581E090E0089582E048
:1004000090E0089583E090E0089580E090E0089502
:1004100081E090E0089590E0FC01F197E930F1056A
:10042000B0F4EA5BFF4F0C94620F81E0089582E024
:10043000089583E0089584E0089585E0089586E0B6
:10044000089587E0089588E0089589E0089580E0A0
:10045000089590E08A309105B8F4FC01E15BFF4F0C
:100460000C94620F81E3089582E3089583E3089575
:1004700084E3089585E3089586E3089587E3089566
:1004800088E3089589E3089580E0089580E308955E
:10049000843638F48A3038F491E0811105C090E058
:1004A00003C093E001C092E0892F0895662339F0DC
:1004B000FC01860F911D1192E817F907E1F70895E5
:1004C0008FEE88B90000309B29C0319B29C0329B38
:1004D00029C0339B29C08FED88B90000309B26C00E
:1004E000319B26C0329B26C0339B26C08FEB88B938
:1004F0000000309B23C0319B23C0329B23C0339B21
:1005000023C08FE788B90000309B20C0319B20C0FA
:10051000329B20C0339B20C080E0089581E3089582
:1005200084E3089587E308958EE2089582E30895B1
:1005300085E3089588E3089580E3089583E30895AB
:1005400086E3089589E3089583E2089581E4089598
:1005500082E4089583E4089584E40895CF92DF92BD
:10056000EF92FF920F931F93CF93DF93EC018130B3
:10057000910569F11CF4892B49F09EC082309105E8
:1005800009F43DC0039709F491C096C083E08093BD
:1005900073028AE190E00E946B0F813309F48FC0EF
:1005A00060E384E190E00E94780F60E385E190E0F1
:1005B0000E94780F60E386E190E00E94780F60E38C
:1005C00087E190E00E94780FC1E0D0E082C01092F5
:1005D0006C0284E190E090936B0280936A02109227
:1005E000690267E082E692E061DF80917302833006
:1005F00009F06FC062E371E081E09ADE63C0809130
:100600007502833209F05EC010C06EDE80916C020C
:10061000E82FF0E0EE59FD4F9091750290838F5FC7
:1006200080936C02C2E0D0E054C01092690284E171
:1006300090E090936B0280936A0280E255DEC09056
:100640006C028C2D90E00197181619061CF502E635
:1006500012E08C2D90E09C012F593D4F7901DD2453
:10066000D394C0916A02D0916B02CE010E946B0FAD
:10067000F80191918F018913D09269022196D0934C
:100680006B02C0936A020E151F0559F7809169022B
:10069000811103C081E080937302F1E0CF1209C0A1
:1006A00083E080937302C3E0D0E013C0C1E0D0E0E8
:1006B00010C0C3E0D0E00DC0C0E0D0E00AC0C1E08F
:1006C000D0E007C0FDDE8093750281119ECFC2E0AD
:1006D000D0E0CE01DF91CF911F910F91FF90EF906D
:1006E000DF90CF9008954F925F926F927F928F929A
:1006F0009F92AF92BF92EF92FF920F931F93CF936F
:10070000DF93EC018A30910508F0ADC3FC01E75A94
:10071000FF4F0C94620FC5E0D0E0D8C310925E0288
:1007200010925F02109260021092610210925D02BC
:1007300010925C0210925B0210925A0210925902BF
:1007400067E082E592E0B2DE80917302823009F0C8
:10075000BDC396C3B5DE809375028134C9F481E0D0
:1007600090E00E94730F9B01AC0160915E0270915A
:100770005F0280916002909161020E940F0C609371
:100780005E0270935F02809360029093610271C376
:10079000823409F09BC38AE090E00E94730F9B01B2
:1007A000AC0160915E0270915F0280916002909155
:1007B00061020E940F0C60935E0270935F0280934F
:1007C00060029093610255C37BDE80937502813491
:1007D00009F49EC1823409F079C352C38091750235
:1007E000833209F09CC1BFC16BDE809375028332F6
:1007F00009F03CC383E080937302C1E0D0E066C39C
:10080000839480925A0280915A0242DE80935D0264
:100810009FEF980F90935B02E82EF12C1E141F049B
:100820000CF04FC000E010E060915A0270E080E0F0
:1008300090E00E940E0D2B013C01C0915B026C2FD9
:1008400070E080E090E00E940C0D4B015C019B0188
:10085000AC0160E070E080E291E40E94FD0D9B013C
:10086000AC01C301B2010E94730C0E94E00CD62FB0
:10087000A501940160E070E080E291E40E94FD0D2A
:100880004B015C016D2F70E080E090E00E940E0D46
:10089000A50194010E949A0D9B01AC01C301B20114
:1008A000BDD70E94E00C60935A028D2FD2DD1CDD73
:1008B000C150C0935B020F5F1F4F0E151F0509F05B
:1008C000B3CF81E080935B028EE20EDD02E010E0A8
:1008D0006091590270E080E090E00E940E0D4B01A3
:1008E0005C01C0915B026C2F70E080E090E00E94A0
:1008F0000C0D2B013C019B01AC0160E070E080E23B
:1009000091E40E94FD0D9B01AC01C501B401EBD740
:100910000E94E00CD62FA301920160E070E080E21B
:1009200091E40E94FD0D2B013C016D2F70E080E0F1
:1009300090E00E940E0DA30192010E949A0D9B016E
:10094000AC01C501B4016AD70E94E00C6093590262
:100950008D2F7FDDC9DCC150C0935B0201501109AE
:1009600009F0B6CF8AE090E00E94730F2B013C01A2
:100970000E94DB0C4B015C01C62F60935A02072ECC
:10098000000C880B990B0E940E0D9B01AC01C3015A
:10099000B20144D720E030E048EC52E40E949A0DC6
:1009A0000E94DB0C6093590280E29EDC80E29CDCBA
:1009B00080E29ADCC33618F0839480925A028091C8
:1009C0005A0266DD80935D029FEF980F90935B0261
:1009D000E82EF12C1E141F040CF04BC000E010E0B8
:1009E00060915A0270E080E090E00E940E0D2B01B1
:1009F0003C01C0915B026C2F70E080E090E00E94AF
:100A00000C0D4B015C019B01AC0160E070E080E2E9
:100A100091E40E94FD0D9B01AC01C301B20163D7BB
:100A2000CFD7D62FA501940160E070E080E291E479
:100A30000E94FD0D4B015C016D2F70E080E090E0A5
:100A4000EDD7A50194010E949A0D9B01AC01C30151
:100A5000B201E4D6B5D760935A028D2FFADC44DC9C
:100A6000C150C0935B020F5F1F4FE016F10609F003
:100A7000B7CF81E080935B028EE236DC02E010E0CB
:100A80006091590270E080E090E0C8D74B015C01B2
:100A9000C0915B026C2F70E080E090E0BDD72B012D
:100AA0003C019B01AC0160E070E080E291E40E94B7
:100AB000FD0D9B01AC01C501B40115D781D7D62F1F
:100AC000A301920160E070E080E291E40E94FD0DDC
:100AD0002B013C016D2F70E080E090E09FD7A301D7
:100AE00092010E949A0D9B01AC01C501B40196D6FA
:100AF00067D7609359028D2FACDCF6DBC150C093F1
:100B00005B020150110909F0BBCFC2E0D0E0DEC1A9
:100B10006EE371E081E00CDCC6E0D0E0D7C1D0DC50
:100B2000809375028823B9F09FEB980F943098F06A
:100B3000DBDB909175029E3221F480915C02809300
:100B40005D0280915C02E82FF0E0EE5AFD4F908349
:100B50008F5F80935C0280915D02815080935B0285
:100B6000C7E0D0E0B3C160E571E081E0E1DB81E0A6
:100B7000BBDBE0905D020E2D10E0101611060CF0AC
:100B80003FC00F2EF2E5AF2EF2E0BF2EF02DC801D0
:100B90009C012E5A3D4F4901F50181915F013BDCDB
:100BA000D82FC0915B026C2F70E080E090E034D7CA
:100BB0009B01AC0160E070E080E291E40E94FD0DD9
:100BC0002B013C016D2F70E080E090E027D7A3015E
:100BD0009201B0D72B013C0160915A0270E080E095
:100BE00090E01CD79B01AC01C301B20118D6E8D636
:100BF00060935A02C150C0935B028A149B0461F651
:100C000081E080935B020F5F1F4FA0905C02B12CCC
:100C1000F1E0AF1AB1080A151B050CF03BC08E2D90
:100C200090E09C012D5A3D4F7901F70181917F01A0
:100C3000F2DBD82FC0915B026C2F70E080E090E077
:100C4000EBD69B01AC0160E070E080E291E4D5D787
:100C50002B013C016D2F70E080E090E0DFD6A30116
:100C6000920168D72B013C016091590270E080E04D
:100C700090E0D4D69B01AC01C301B201D0D5A0D67F
:100C800060935902C150C0935B020F5F1F4F0A155A
:100C90001B055CF26091590270E080E090E0BCD6E8
:100CA00020E030E048EC52E41ED64B015C0160913C
:100CB0005A0270E080E090E0AFD69B01AC01C50124
:100CC000B401ADD520915E0230915F024091600287
:100CD00050916102A3D52B013C016DD64B015C0103
:100CE000C62F60935A02072E000C880B990B96D6DC
:100CF0009B01AC01C301B20191D520E030E048EC8A
:100D000052E418D758D66093590280E2EDDAC33620
:100D100018F0839480925A0280915A02B9DB809332
:100D20005D029FEF980F90935B02E82EF12C1E144A
:100D30001F040CF046C000E010E060915A0270E021
:100D400080E090E06BD62B013C01C0915B026C2FE0
:100D500070E080E090E060D64B015C019B01AC014B
:100D600060E070E080E291E448D79B01AC01C301F0
:100D7000B201B9D525D6D62FA501940160E070E067
:100D800080E291E43AD74B015C016D2F70E080E086
:100D900090E044D6A5019401CDD69B01AC01C301DE
:100DA000B2013CD50DD660935A028D2F52DB9CDAEE
:100DB000C150C0935B020F5F1F4FE016F10609F0B0
:100DC000BCCF81E080935B028EE28EDA02E010E01D
:100DD0006091590270E080E090E020D64B015C0108
:100DE000C0915B026C2F70E080E090E015D62B0183
:100DF0003C019B01AC0160E070E080E291E4FDD633
:100E00009B01AC01C501B4016ED5DAD5D62FA30183
:100E1000920160E070E080E291E4EFD62B013C01AA
:100E20006D2F70E080E090E0F9D5A301920182D6A9
:100E30009B01AC01C501B401F1D4C2D56093590244
:100E40008D2F07DB51DAC150C0935B0201501109AD
:100E500009F0BECFC8E0D0E039C0C1E0D0E036C074
:100E6000C3E0D0E033C0C0E0D0E030C0C9E0D0E0A3
:100E70002DC062E671E081E05BDAC4E0D0E026C01C
:100E80006FE771E081E054DA81E090E00E94730F37
:100E90002B013C0190D54B015C01C62F60935A0297
:100EA000072E000C880B990BB9D59B01AC01C3012F
:100EB000B201B4D420E030E048EC52E43BD67BD51C
:100EC00060935902C33608F09BCC9DCCCE01DF91D4
:100ED000CF911F910F91FF90EF90BF90AF909F9097
:100EE0008F907F906F905F904F9008954F925F9298
:100EF0006F927F928F929F92AF92BF92CF92DF922A
:100F0000EF92FF920F931F93CF93DF93EC01893001
:100F1000910508F02BC3FC01ED59FF4FD3C7109288
:100F200051021092500210924F0210924E021092F3
:100F30004D0210924C0267E085E492E0B7DA8091AE
:100F40007302843009F028C364E971E081E0F0D9CC
:100F5000C2E0D0E021C3B4DA80937502813429F471
:100F600065EB71E081E0E4D907C3823409F014C372
:100F700067EC71E081E0DCD981E090E0B4D74B010F
:100F80005C0119D56B017C017093440260934302AC
:100F9000C62F60934D02072E000C880B990B3ED58F
:100FA0009B01AC01C501B40139D420E030E048EC2C
:100FB00052E4C0D500D560934C02C33618F0C394F8
:100FC000C0924D0280914D0263DA809351029FEFEF
:100FD000980F90934F02E82EF12C1E141F040CF072
:100FE00046C000E010E060914D0270E080E090E0CB
:100FF00015D52B013C01C0914F026C2F70E080E0B1
:1010000090E00AD54B015C019B01AC0160E070E00F
:1010100080E291E4F2D59B01AC01C301B20163D43B
:10102000CFD4D62FA501940160E070E080E291E476
:10103000E4D54B015C016D2F70E080E090E0EED4D0
:10104000A501940177D59B01AC01C301B201E6D3A0
:10105000B7D460934D028D2FFCD946D9C150C093AF
:101060004F020F5F1F4F0E151F0509F0BCCF81E027
:1010700080934F028EE238D902E010E060914C027A
:1010800070E080E090E0CAD46B017C01C0914F0217
:101090006C2F70E080E090E0BFD44B015C019B01BD
:1010A000AC0160E070E080E291E4A7D59B01AC0167
:1010B000C701B60118D484D4D62FA501940160E0ED
:1010C00070E080E291E499D54B015C016D2F70E0F6
:1010D00080E090E0A3D4A50194012CD59B01AC0144
:1010E000C701B6019BD36CD460934C028D2FB1D94C
:1010F000FBD8C150C0934F020150110909F0BECF77
:101100008AE090E0F0D64B015C0155D46B017C0184
:101110007093440260934302C62F60934D02072EE2
:10112000000C880B990B7AD49B01AC01C501B4016A
:1011300075D320E030E048EC52E4FCD43CD460931A
:101140004C0280E2D1D880E2CFD880E2CDD8C3363D
:1011500018F0C394C0924D0280914D0299D98093AA
:1011600051029FEF980F90934F02E82EF12C1E141E
:101170001F040CF046C000E010E060914D0270E0EA
:1011800080E090E04BD42B013C01C0914F026C2FCA
:1011900070E080E090E040D44B015C019B01AC0129
:1011A00060E070E080E291E428D59B01AC01C301CE
:1011B000B20199D305D4D62FA501940160E070E067
:1011C00080E291E41AD54B015C016D2F70E080E064
:1011D00090E024D4A5019401ADD49B01AC01C301DE
:1011E000B2011CD3EDD360934D028D2F32D97CD840
:1011F000C150C0934F020F5F1F4FE016F10609F078
:10120000BCCF81E080934F028EE26ED802E010E006
:1012100060914C0270E080E090E000D46B017C01B2
:10122000C0914F026C2F70E080E090E0F5D34B014D
:101230005C019B01AC0160E070E080E291E4DDD4F0
:101240009B01AC01C701B6014ED3BAD3D62FA5017D
:10125000940160E070E080E291E4CFD44B015C0146
:101260006D2F70E080E090E0D9D3A501940162D4A5
:101270009B01AC01C701B601D1D2A2D360934C024D
:101280008D2FE7D831D8C150C0934F0201501109BA
:1012900009F0BECFC5E0D0E07FC1809175028332F6
:1012A00009F06AC184E190E0909344028093430284
:1012B00061E38AE190E01CD68091500281114EC01A
:1012C000C4E0D0E069C16AED71E081E031D8C8E0E6
:1012D000D0E062C1F5D880937502813439F481E0A1
:1012E00080934E026AEF71E023D84FC1823409F037
:1012F00053C182E080934E026AEF71E081E018D81A
:1013000044C180917502833209F03FC166C06AED25
:1013100071E081E00DD8C8E0D0E03EC1D1D8809323
:101320007502813409F425C1833209F035C183E0A7
:1013300080937302C1E0D0E02FC10E9474018091BC
:101340005002E82FF0E0EB5BFD4F90917502908327
:101350008F5F80935002C3E0D0E01EC105E412E02D
:10136000C0E0D0E0F80161918F018091430290913B
:101370004402BED58091430290914402019690931D
:1013800044028093430221968091500290E0C81756
:10139000D90744F3C4E0D0E0FFC09FEB980F94302E
:1013A000A0F00E947401909175029E3221F4809108
:1013B00050028093510280915002E82FF0E0EB5BE5
:1013C000FD4F90838F5F8093500280915102815036
:1013D00080934F02C6E0D0E0DFC0E09051028FEF73
:1013E0008E0D80934F020E2D10E0101611060CF09A
:1013F0003EC00F2EF5E4CF2EF2E0DF2EF02DC80117
:101400009C012B5B3D4F5901F60181916F0103D87F
:10141000D82FC0914F026C2F70E080E090E0FCD29A
:101420009B01AC0160E070E080E291E4E6D32B0127
:101430003C016D2F70E080E090E0F0D2A3019201BA
:1014400079D32B013C0160914D0270E080E090E087
:10145000E5D29B01AC01C301B201E1D1B1D26093ED
:101460004D02C150C0934F02CA14DB0469F681E0FB
:1014700080934F020F5F1F4FC0905002D12CF1E0BC
:10148000CF1AD1080C151D050CF03CC08E2D90E034
:101490009C012A5B3D4F7901F70181917F010E94F8
:1014A0000B02D82FC0914F026C2F70E080E090E0CB
:1014B000B3D29B01AC0160E070E080E291E49DD387
:1014C0004B015C016D2F70E080E090E0A7D2A50198
:1014D000940130D34B015C0160914C0270E080E0DC
:1014E00090E09CD29B01AC01C501B40198D168D2B7
:1014F00060934C02C150C0934F020F5F1F4F0C15F9
:101500001D0554F260914C0270E080E090E084D2BE
:1015100020E030E048EC52E4E6D16B017C016091C0
:101520004D0270E080E090E077D29B01AC01C701F2
:10153000B60175D120914E02213041F4AB01BC01BE
:1015400081E090E0E3D4C7E0D0E026C0223059F437
:10155000AB01BC018AE090E0D9D4C7E0D0E01CC068
:10156000C1E0D0E019C0C7E0D0E016C0C0E0D0E0D4
:1015700013C0C2E0D0E010C00E94600280937502E8
:101580008111DBCEC3E0D0E007C00E9460028093EF
:101590007502811102CF19CFCE01DF91CF911F913A
:1015A0000F91FF90EF90DF90CF90BF90AF909F9002
:1015B0008F907F906F905F904F900895813091054C
:1015C00069F01CF4892B39F038C08230910569F03C
:1015D000039791F032C01092760217C00E94600209
:1015E00080937202811134C02EC00E9460028093E9
:1015F0007402882391F136C0809172028093770241
:1016000080917602893089F41BC0809176028F5FC9
:101610008093760281E090E00895809176028F5F5A
:101620008093760282E090E00895809176028F5F49
:101630008093760283E090E0089580E090E0089542
:1016400080E090E00895809176028930C9F3DDCF83
:1016500080917602893009F7F3CF80917602893044
:1016600079F3E3CF809176028930B9F6E9CFCF9351
:10167000DF93CDB7DEB762970FB6F894DEBF0FBE2B
:10168000CDBF8FEF81B912B88AB91BB884B915B82C
:1016900080EF87B98FE088B98AE0E4E0F1E0DE010D
:1016A000119601900D928A95E1F7E8E3F2E010823D
:1016B00083E090E0A0E0B0E081839283A383B483D1
:1016C00085839683A783B0878EEA92E0928781878D
:1016D000EDE2F2E010828AE090E0A0E0B0E08183E9
:1016E0009283A383B48385839683A783B08781EB9A
:1016F00091E092878187E2E2F2E0108282E090E05E
:10170000A0E0B0E081839283A383B4838583968332
:10171000A783B08723E733E032872187E7E1F2E050
:10172000108281839283A383B48385839683A78366
:10173000B08786E797E092878187ECE0F2E010823D
:1017400081E090E0A0E0B0E081839283A383B48342
:1017500085839683A783B0878EED9AE092878187F1
:1017600088E0EEE0F1E0DE011B9601900D928A9593
:10177000E1F7BE01655F7F4F81E00E947D0164E675
:1017800070E080E090E00E94CD000E94DE000E94A8
:1017900065010E945A017E018BE0E80EF11CDE011A
:1017A00011966D01F601019111916F01D801159605
:1017B0004D915D916D917C91189711968D919D91B0
:1017C0000D90BC91A02D481759076A077B0781F43B
:1017D000F80180810184F285E02D082E000C990B20
:1017E0000995D8018C93F80115821682178210860C
:1017F000F80185819681A781B0850196A11DB11D53
:1018000085839683A783B087CE14DF0459F6809131
:1018100071028823E1F310927102C1CF5058BB27A7
:10182000AA270ED04DC13ED130F043D120F031F483
:101830009F3F11F41EF433C10EF4E095E7FB29C17C
:10184000E92F4FD180F3BA17620773078407950712
:1018500018F071F49EF567C10EF4E0950B2EBA2FC7
:10186000A02D0B01B90190010C01CA01A0011124A6
:10187000FF27591B99F0593F50F4503E68F11A1652
:10188000F040A22F232F342F4427585FF3CF4695E3
:1018900037952795A795F0405395C9F77EF41F1605
:1018A000BA0B620B730B840BBAF09150A1F0FF0FCF
:1018B000BB1F661F771F881FC2F70EC0BA0F621FBB
:1018C000731F841F48F4879577956795B795F795AB
:1018D0009E3F08F0B3CF9395880F08F09927EE0F3D
:1018E0009795879508950CD0EBC0E3D040F0DAD0FF
:1018F00030F021F45F3F19F0CCC0511115C1CFC0B9
:10190000F0D098F39923C9F35523B1F3951B550BE8
:10191000BB27AA2762177307840738F09F5F5F4FC2
:10192000220F331F441FAA1FA9F333D00E2E3AF003
:10193000E0E830D091505040E695001CCAF729D01D
:10194000FE2F27D0660F771F881FBB1F261737076C
:101950004807AB07B0E809F0BB0B802DBF01FF279C
:1019600093585F4F2AF09E3F510568F092C0DCC04B
:101970005F3FECF3983EDCF3869577956795B795D6
:10198000F7959F5FC9F7880F911D9695879597F9F1
:101990000895E1E0660F771F881FBB1F621773076A
:1019A0008407BA0720F0621B730B840BBA0BEE1F7F
:1019B00088F7E095089504D06894B111B5C00895F2
:1019C00098D088F09F5790F0B92F9927B751A0F081
:1019D000D1F0660F771F881F991F1AF0BA95C9F7C3
:1019E00012C0B13081F09FD0B1E008959CC0672F44
:1019F000782F8827B85F39F0B93FCCF38695779573
:101A00006795B395D9F73EF490958095709561955B
:101A10007F4F8F4F9F4F0895E89409C097FB3EF486
:101A200090958095709561957F4F8F4F9F4F99232B
:101A3000A9F0F92F96E9BB279395F69587957795A9
:101A40006795B795F111F8CFFAF4BB0F11F460FF69
:101A50001BC06F5F7F4F8F4F9F4F16C0882311F0C1
:101A600096E911C0772321F09EE8872F762F05C0D5
:101A7000662371F096E8862F70E060E02AF09A9570
:101A8000660F771F881FDAF7880F9695879597F965
:101A9000089597F99F6780E870E060E008959FEFF0
:101AA00080EC089500240A941616170618060906F5
:101AB000089500240A9412161306140605060895C4
:101AC000092E0394000C11F4882352F0BB0F40F44C
:101AD000BF2B11F460FF04C06F5F7F4F8F4F9F4F8C
:101AE000089557FD9058440F551F59F05F3F71F00E
:101AF0004795880F97FB991F61F09F3F79F0879575
:101B00000895121613061406551FF2CF4695F1DFFD
:101B100008C0161617061806991FF1CF869571058D
:101B2000610508940895E894BB2766277727CB01C1
:101B300097F908950BD0C4CFB5DF28F0BADF18F0BD
:101B4000952309F0A6CFABCF1124EECFCADFA0F3C7
:101B5000959FD1F3950F50E0551F629FF001729F42
:101B6000BB27F00DB11D639FAA27F00DB11DAA1F61
:101B7000649F6627B00DA11D661F829F2227B00DAE
:101B8000A11D621F739FB00DA11D621F839FA00D39
:101B9000611D221F749F3327A00D611D231F849F89
:101BA000600D211D822F762F6A2F11249F575040E0
:101BB0008AF0E1F088234AF0EE0FFF1FBB1F661F7B
:101BC000771F881F91505040A9F79E3F510570F034
:101BD00060CFAACF5F3FECF3983EDCF38695779514
:101BE0006795B795F795E7959F5FC1F7FE2B880F2F
:101BF000911D9695879597F90895FA01EE0FFF1FAD
:101C000030962105310599F16115710561F480382F
:101C1000BFE39B0749F168949038810561F08038F3
:101C2000BFEF9B0741F0992342F5FF3FE1053105E6
:101C3000210511F1E8940894E795D901AA2329F424
:101C4000AB2FBE2FF85FD0F310C0FF5F70F4A695E6
:101C5000E0F7F73950F019F0FF3A38F49F779F9387
:101C60000CD00F9007FC905808953EF018CF60E01C
:101C700070E080E89FE308954FE79F775F934F936D
:101C80003F932F939ED02F913F914F915F9152DFC1
:101C900005C019F40EF0FDCE46CF01CF2ADFC8F300
:101CA0009638C0F707F80F92E8942BE33AEA48EB2E
:101CB0005FE74EDF0F920F920F924DB75EB70F9214
:101CC000C0D0E8EDF0E016D04F915F91EF91FF9119
:101CD000E595EE1FFF1F49F0FE57E0684427EE0F21
:101CE000441FFA95E1F74195550B32D00F9007FE4E
:101CF00026C00895DF93CF931F930F93FF92EF9227
:101D0000DF927B018C01689405C0DA2EEF011EDFA3
:101D1000FE01E894A5912591359145915591AEF339
:101D2000EF018EDDFE019701A801DA9479F7DF90CB
:101D3000EF90FF900F911F91CF91DF9108959B013C
:101D4000AC0160E070E080E89FE3CDCDA2CEACC0F6
:101D5000D0DEE8F39923D9F3940F511DBBF39150D2
:101D6000504094F059F0882332F0660F771F881F97
:101D700091505040C1F79E3F510544F7880F911D87
:101D80009695879597F908955F3FACF0983E9CF043
:101D9000BB27869577956795B79508F4B1609395BD
:101DA000C1F7BB0F58F711F460FFE8CF6F5F7F4FAB
:101DB0008F4F9F4FE3CFB8CE0EF076C070CE6894B1
:101DC00068CE97DEC8F39923D1F3C6F3DF93CF93A0
:101DD0001F930F93FF92C92FDD2788232AF02197A5
:101DE000660F771F881FDAF720E030E040E85FEBEE
:101DF0009FE3883920F0803E30F021968F770FDD09
:101E0000E0E0F1E003C00BDDEDE2F1E073DF8B0118
:101E1000BE01EC01FB2E6F5771097595771F880B7A
:101E2000990BFCDD28E132E741E35FE38FDEAF2D64
:101E30009801AE01FF900F911F91CF91DF9100DDCE
:101E40003FCEFA01DC01AA0FBB1F9B01AC01BF57BB
:101E500028F422273327442750781FC0B75188F42D
:101E6000AB2F0024469537952795011CA395D2F3F7
:101E7000002069F0220F331F441FB395DAF30DD011
:101E8000CDCC61307105A0E88A07B94630F49B01DA
:101E9000AC016627772788279078309621F0208339
:101EA00031834283538308959F3F31F0915020F452
:101EB000879577956795B795880F911D9695879526
:101EC00097F90895EE0FFF1F0024001C0BBE07902A
:101ED000F691E02D0994F999FECF92BD81BDF89A53
:101EE000992780B50895A6E1B0E044E050E018C01D
:101EF000262FF999FECF1FBA92BD81BD20BD0FB626
:101F0000F894FA9AF99A0FBE01960895242FF1DFFA
:101F1000252FEFDF00C0ECDF272FEBCFDC01CB015B
:101F2000FC01F999FECF06C0F2BDE1BDF89A3196E9
:101F300000B40D9241505040B8F70895F894FFCF87
:101F40000100000038022D02220217020C02000ECE
:101F5000091E1E090E00412E205472616E736163CA
:101F600074696F6E7300422E2053657474696E67D6
:101F70007300656E7465722070696E3A2000456E5C
:101F8000746572205061796D656E743A202020006E
:101F90006368616E67653A20202020202020202081
:101FA0002000446F6E6520207C20204164644974C9
:101FB000656D2041202020207C20202020420041EF
:101FC00020202020202020422020202020202020EF
:101FD00020202000202041202020207C2020204282
:101FE000202020202020636F6465207C2020206931
:101FF00074656D7300656E746572206E657720631D
:102000006F64653A202000412020202020422020BB
:1020100020202020202020202000412020202020BF
:102020002020207C20202023202073657474696E7A
:102030006773207C206D656E7500456E7465722037
:0C20400050726963653A202020202000C7
:00000001FF
