S00D00006C616231302E7372656387
S1130000ACC00000C9C00000C7C00000C5C00000EB
S1130010C3C00000C1C00000BFC00000BDC00000DC
S1130020BBC00000B9C00000B7C00000B5C00000EC
S1130030B3C00000E7C00000AFC00000ADC00000C6
S1130040ABC00000A9C00000A7C00000A5C000000C
S1130050A3C00000A1C000009FC000009DC000001C
S11300609BC0000099C0000097C0000095C000002C
S113007093C0000091C000008FC000008DC000003C
S11300808BC0000089C0000087C00000FA01FC0199
S1130090FE01000202020402060208020A022B0206
S11300A0170219021B021D021F022102230225024C
S11300B0270226076B0329078F036803C9037D05FD
S11300C0D303D903D903BD0A9407B00752096809B9
S11300D06F0987098D09950907634236B79BD8A72D
S11300E01A39685618AEBAAB558C1D3CB7CC576359
S11300F0BD6DEDFD753EF6177231BF000000803F07
S113010008000000BE922449123EABAAAA2ABECD22
S1130110CCCC4C3E00000080BEABAAAAAA3E000094
S11301200000BF000000803F00000000000841788C
S1130130D3BB4387D1133D190E3CC3BD4282AD2BC3
S11301403E68EC8276BED98FE1A93E4C80EFFFBEBB
S113015001C4FF7F3F000000000011241FBECFEF49
S1130160D0E4DEBFCDBF12E0A0E0B1E0E8E3FFE100
S113017000E00BBF02C007900D92A430B107D9F77D
S113018022E0A4E0B2E001C01D92A437B207E1F777
S11301900E94440B0C949A0F33CF60930001709328
S11301A001018093020190930301609369027093AB
S11301B06A0280936B0290936C0208958BE08093A3
S11301C081008DE790E0909389008093880082E01D
S11301D080936F001092850010928400809100013A
S11301E090910101A0910201B091030180936902F1
S11301F090936A02A0936B02B0936C028FB78068ED
S11302008FBF08951F920F920FB60F9211248F93F0
S11302109F93AF93BF938091690290916A02A091DA
S11302206B02B0916C020197A109B1098093690234
S113023090936A02A0936B02B0936C02892B8A2B71
S11302408B2B99F481E080936D0280910001909151
S11302500101A0910201B09103018093690290937E
S11302606A02A0936B02B0936C02BF91AF919F910D
S11302708F910F900FBE0F901F90189518161906A6
S11302805CF00895000021503109E1F74F5F5F4FA2
S11302908417950719F4089540E050E027E033E00F
S11302A0F1CF10988BB9119A0000119882E090E078
S11302B0E5CF089581E0F5CF0895813118F4815890
S11302C0F0CF08958155EDCF089584E690E0D6DF10
S11302D088E3E7DF86E0E5DF8FE0E3DF81E0E1DF6D
S11302E08AE090E0CBCF0895109A8BB9119A000060
S11302F0119881E090E0C2CF08950F931F93CF939C
S1130300DF93182FEB01D6DF8881882351F001E0B9
S1130310010F812FD2DF8991E7DF102F88818111AE
S1130320F6CFDF91CF911F910F9108958130910500
S113033059F024F4892B09F444C04CC0823091054F
S113034049F0039771F046C020916F02213009F003
S113035046C00BC080916F028130E9F081E090E0EB
S1130360089580916F028130C1F56EE071E081E003
S1130370C4DF80917302813431F482E080936F0290
S113038082E090E008958234F9F484E080936F026F
S113039082E090E008956EE171E081E0AEDF80914B
S11303A07302813431F482E080936F0283E090E041
S11303B00895823461F484E080936F0283E090E0D6
S11303C0089581E090E0089582E090E0089583E04C
S11303D090E0089580E090E0089581E090E0089531
S11303E090E0FC01F197E930F105B0F4EA5BFF4FCE
S11303F00C945E0F81E0089582E0089583E00895EF
S113040084E0089585E0089586E0089587E00895DE
S113041088E0089589E0089580E0089590E08A30A6
S11304209105B8F4FC01E15BFF4F0C945E0F81E38E
S1130430089582E3089583E3089584E3089585E3AA
S1130440089586E3089587E3089588E3089589E38A
S1130450089580E0089580E30895843638F48A305E
S113046038F491E0811105C090E003C093E001C02D
S113047092E0892F0895662339F0FC01860F911DBF
S11304801192E817F907E1F708958FEE88B9000093
S1130490309B29C0319B29C0329B29C0339B29C082
S11304A08FED88B90000309B26C0319B26C0329B5B
S11304B026C0339B26C08FEB88B90000309B23C035
S11304C0319B23C0329B23C0339B23C08FE788B961
S11304D00000309B20C0319B20C0329B20C0339B46
S11304E020C080E0089581E3089584E3089587E3BC
S11304F008958EE2089582E3089585E3089588E3DC
S1130500089580E3089583E3089586E3089589E3D5
S1130510089583E2089581E4089582E4089583E4CC
S1130520089584E40895DF92EF92FF920F931F934E
S1130530CF93DF93EC018130910569F11CF4892B91
S113054049F0A0C08230910509F43DC0039709F435
S11305508BC098C083E080936F028AE190E00E9490
S1130560670F813309F491C060E384E190E00E9455
S1130570740F60E385E190E00E94740F60E386E10C
S113058090E00E94740F60E387E190E00E94740F92
S1130590C1E0D0E07CC01092680284E190E09093C6
S11305A06702809366021092650267E08EE592E02E
S11305B062DF80916F02833009F069C06AE271E002
S11305C081E09BDE57C080917102833209F052C0F2
S11305D010C08ADE80916802E82FF0E0E25AFD4FF5
S11305E09091710290838F5F80936802C2E0D0E0A3
S11305F04EC01092650284E190E09093670280936C
S1130600660280E271DEE09068028E2D90E0019730
S1130610181619061CF50EE512E08E2D90E09C01CB
S1130620235A3D4F7901DD24D394C0916602D091C1
S11306306702CE010E94670FF80191918F0189131F
S1130640D09265022196D0936702C09366020E157C
S11306501F0559F780916502811109C081E08093DB
S11306606F02C3E0D0E013C0C1E0D0E010C0C3E02B
S1130670D0E00DC00ADF809371028111AACFC2E0DD
S1130680D0E005C0C0E0D0E002C0C1E0D0E0CE01BF
S1130690DF91CF911F910F91FF90EF90DF9008951C
S11306A04F925F926F927F928F929F92AF92BF927E
S11306B0EF92FF920F931F93CF93DF93EC018A3055
S11306C0910508F0C9C3FC01E75AFF4F0C945E0F73
S11306D0C5E0D0E000C410925A0210925B0210925E
S11306E05C0210925D021092560210925702109210
S11306F0580210925902109255021092540210920C
S11307005302109252021092510267E08AE492E07E
S1130710B2DE80916F02823009F0DDC3AAC3B5DE78
S1130720809371028134C9F481E090E00E946F0FDC
S11307309B01AC0160915A0270915B0280915C0252
S113074090915D020E940B0C60935A0270935B02BD
S113075080935C0290935D0285C3823409F0BBC32D
S11307608AE090E00E946F0F9B01AC0160915A02F5
S113077070915B0280915C0290915D020E940B0C6F
S113078060935A0270935B0280935C0290935D02C3
S113079069C37BDE80937102813409F4A7C182347A
S11307A009F099C366C380917102833209F0A5C12F
S11307B0C8C16BDE80937102833209F050C383E0B9
S11307C080936F02C1E0D0E086C38394809252028A
S11307D08091520242DE809355029FEF980F9093CE
S11307E05302E82EF12C1E141F040CF04FC000E03D
S11307F010E06091520270E080E090E00E940A0DE7
S11308002B013C01C09153026C2F70E080E090E01A
S11308100E94080D4B015C019B01AC0160E070E09B
S113082080E291E40E94F90D9B01AC01C301B20185
S11308300E946F0C0E94DC0CD62FA501940160E08D
S113084070E080E291E40E94F90D4B015C016D2F90
S113085070E080E090E00E940A0DA50194010E94DE
S1130860960D9B01AC01C301B201D4D70E94DC0CEC
S1130870609352028D2FD2DD37DDC150C0935302F5
S11308800F5F1F4F0E151F0509F0B3CF81E0809352
S113089053028EE229DD02E010E06091510270E023
S11308A080E090E00E940A0D4B015C01C09153026C
S11308B06C2F70E080E090E00E94080D2B013C0159
S11308C09B01AC0160E070E080E291E40E94F90DCC
S11308D09B01AC01C501B4010E946F0C0E94DC0CA9
S11308E0D62FA301920160E070E080E291E40E94BF
S11308F0F90D2B013C016D2F70E080E090E00E9427
S11309000A0DA30192010E94960D9B01AC01C50141
S1130910B40180D70E94DC0C609351028D2F7EDDE0
S1130920E3DCC150C09353020150110909F0B5CF63
S11309308AE090E00E946F0F2B013C010E94D70CCB
S11309404B015C01072E000C880B990B0E940A0DC9
S11309509B01AC01C301B2015DD720E030E048EC5B
S113096052E40E94960D609356027093570280934E
S1130970580290935902C82D809252020E94D70CBB
S11309806093510280E2B0DC80E2AEDC80E2ACDC59
S1130990C33618F0839480925202809152025DDD36
S11309A0809355029FEF980F90935302E82EF12CF9
S11309B01E141F040CF04BC000E010E060915202C2
S11309C070E080E090E00E940A0D2B013C01C09190
S11309D053026C2F70E080E090E00E94080D4B0100
S11309E05C019B01AC0160E070E080E291E40E9454
S11309F0F90D9B01AC01C301B20171D7DDD7D62F2C
S1130A00A501940160E070E080E291E40E94F90D98
S1130A104B015C016D2F70E080E090E0FBD7A501F5
S1130A2094010E94960D9B01AC01C301B201F2D660
S1130A30C3D7609352028D2FF1DC56DCC150C093B2
S1130A4053020F5F1F4FE016F10609F0B7CF81E0A4
S1130A50809353028EE248DC02E010E06091510280
S1130A6070E080E090E0D6D74B015C01C091530266
S1130A706C2F70E080E090E0CBD72B013C019B0110
S1130A80AC0160E070E080E291E40E94F90D9B010A
S1130A90AC01C501B40123D78FD7D62FA30192018E
S1130AA060E070E080E291E40E94F90D2B013C01CA
S1130AB06D2F70E080E090E0ADD7A30192010E9419
S1130AC0960D9B01AC01C501B401A4D675D7609302
S1130AD051028D2FA3DC08DCC150C0935302015096
S1130AE0110909F0BBCFC5E0D0E0F5C166E371E0C0
S1130AF081E003DCC6E0D0E0EEC1C7DC8093710284
S1130B008823B9F09FEB980F943098F0EDDB909127
S1130B1071029E3221F48091540280935502809197
S1130B205402E82FF0E0E65BFD4F90838F5F8093E3
S1130B30540280915502815080935302C7E0D0E063
S1130B40CAC168E471E081E0D8DB80905502E82CEA
S1130B50F12C1E141F040CF03EC00AE412E0C7017D
S1130B609C01265B3D4F5901E801F80181918F01F9
S1130B70BBDB888135DC982EC09153026C2F70E06A
S1130B8080E090E045D79B01AC0160E070E080E23A
S1130B9091E40E94F90D2B013C01692D70E080E085
S1130BA090E038D7A3019201C1D72B013C01609199
S1130BB0520270E080E090E02DD79B01AC01C301AC
S1130BC0B20129D6F9D660935202C150C0935302A0
S1130BD00A151B0549F68EE287DB81E080935302F8
S1130BE0FFEFEF1AFF0AA0905402B12C21E0A21AE1
S1130BF0B108EA14FB040CF03EC0082D10E0055BBC
S1130C001D4FE801F80181918F016EDB8881E8DBDB
S1130C10D82FC09153026C2F70E080E090E0F8D69A
S1130C209B01AC0160E070E080E291E4E2D72B012B
S1130C303C016D2F70E080E090E0ECD6A3019201BE
S1130C4075D72B013C016091510270E080E090E087
S1130C50E1D69B01AC01C301B201DDD5ADD66093F1
S1130C605102C150C0935302FFEFEF1AFF0AEA1476
S1130C70FB040CF4C6CF6091510270E080E090E078
S1130C80C7D620E030E048EC52E429D64B015C01A1
S1130C906091520270E080E090E0BAD69B01AC0112
S1130CA0C501B401B8D520915A0230915B0240913C
S1130CB05C0250915D02AED52B013C0178D64B010C
S1130CC05C01072E000C880B990BA4D69B01AC0188
S1130CD0C301B2019FD520E030E048EC52E426D7AE
S1130CE0609356027093570280935802909359026E
S1130CF0C82D809252025BD66093510280E2F4DAEE
S1130D00C33618F083948092520280915202A5DB7C
S1130D10809355029FEF980F90935302E82EF12C85
S1130D201E141F040CF046C000E010E06091520253
S1130D3070E080E090E06ED62B013C01C09153023C
S1130D406C2F70E080E090E063D64B015C019B0166
S1130D50AC0160E070E080E291E44BD79B01AC0110
S1130D60C301B201BCD528D6D62FA501940160E0F9
S1130D7070E080E291E43DD74B015C016D2F70E09F
S1130D8080E090E047D6A5019401D0D69B01AC0148
S1130D90C301B2013FD510D6609352028D2F3EDBC2
S1130DA0A3DAC150C09353020F5F1F4FE016F10640
S1130DB009F0BCCF81E0809353028EE295DA02E021
S1130DC010E06091510270E080E090E023D64B0186
S1130DD05C01C09153026C2F70E080E090E018D663
S1130DE02B013C019B01AC0160E070E080E291E4E6
S1130DF000D79B01AC01C501B40171D5DDD5D62F57
S1130E00A301920160E070E080E291E4F2D62B014C
S1130E103C016D2F70E080E090E0FCD5A3019201CD
S1130E2085D69B01AC01C501B401F4D4C5D560934A
S1130E3051028D2FF3DA58DAC150C0935302015096
S1130E40110909F0BECFC8E0D0E045C0C1E0D0E050
S1130E5042C0C3E0D0E03FC0C0E0D0E03CC0C9E045
S1130E60D0E039C06AE571E081E047DAC4E0D0E05F
S1130E7032C067E771E081E040DA4090560250905A
S1130E8057026090580270905902C301B2018FD585
S1130E904B015C01072E000C880B990BBBD59B0101
S1130EA0AC01C301B201B6D420E030E048EC52E416
S1130EB03DD66093560270935702809358029093E4
S1130EC05902C82D8092520272D560935102C336E2
S1130ED008F07BCC7DCCCE01DF91CF911F910F9197
S1130EE0FF90EF90BF90AF909F908F907F906F9006
S1130EF05F904F9008954F925F926F927F928F927E
S1130F009F92AF92BF92CF92DF92EF92FF920F9394
S1130F101F93CF93DF93EC018930910508F033C31D
S1130F20FC01ED59FF4FCAC71092490210924802C2
S1130F301092470210924602109245021092440207
S1130F4067E08DE392E097DA80916F02843009F0D4
S1130F5030C36CE871E081E0D0D9C2E0D0E029C3AD
S1130F6094DA80937102813429F46DEA71E081E0AE
S1130F70C4D90FC3823409F01CC36FEB71E081E064
S1130F80BCD981E090E0ABD74B015C0110D56B017B
S1130F907C0170933C0260933B02C62F6093450230
S1130FA0072E000C880B990B35D59B01AC01C501AC
S1130FB0B40130D420E030E048EC52E4B7D5F7D4A3
S1130FC060934402C33618F0C394C09245028091E2
S1130FD0450243DA809349029FEF980F90934702AA
S1130FE0E82EF12C1E141F040CF046C000E010E0A3
S1130FF06091450270E080E090E00CD52B013C014B
S1131000C09147026C2F70E080E090E001D54B0165
S11310105C019B01AC0160E070E080E291E4E9D501
S11310209B01AC01C301B2015AD4C6D4D62FA50189
S1131030940160E070E080E291E4DBD54B015C0157
S11310406D2F70E080E090E0E5D4A50194016ED5A9
S11310509B01AC01C301B201DDD3AED46093450260
S11310608D2FDCD941D9C150C09347020F5F1F4F68
S11310700E151F0509F0BCCF81E0809347028EE274
S113108033D902E010E06091440270E080E090E027
S1131090C1D46B017C01C09147026C2F70E080E0E9
S11310A090E0B6D44B015C019B01AC0160E070E0C0
S11310B080E291E49ED59B01AC01C701B6010FD437
S11310C07BD4D62FA501940160E070E080E291E426
S11310D090D54B015C016D2F70E080E090E09AD4D4
S11310E0A501940123D59B01AC01C701B60192D39C
S11310F063D4609344028D2F91D9F6D8C150C09324
S113110047020150110909F0BECF8AE090E0E7D60A
S11311104B015C014CD46B017C0170933C026093E5
S11311203B02C62F60934502072E000C880B990BD7
S113113071D49B01AC01C501B4016CD320E030E053
S113114048EC52E4F3D433D46093440280E2CCD824
S113115080E2CAD880E2C8D8C33618F0C394C092DB
S113116045028091450279D9809349029FEF980FF7
S113117090934702E82EF12C1E141F040CF046C075
S113118000E010E06091450270E080E090E042D41D
S11311902B013C01C09147026C2F70E080E090E08D
S11311A037D44B015C019B01AC0160E070E080E24C
S11311B091E41FD59B01AC01C301B20190D3FCD3D0
S11311C0D62FA501940160E070E080E291E411D58E
S11311D04B015C016D2F70E080E090E01BD4A50111
S11311E09401A4D49B01AC01C301B20113D3E4D391
S11311F0609345028D2F12D977D8C150C09347020E
S11312000F5F1F4FE016F10609F0BCCF81E0809319
S113121047028EE269D802E010E06091440270E077
S113122080E090E0F7D36B017C01C09147026C2F02
S113123070E080E090E0ECD34B015C019B01AC01D9
S113124060E070E080E291E4D4D49B01AC01C7017A
S1131250B60145D3B1D3D62FA501940160E070E067
S113126080E291E4C6D44B015C016D2F70E080E014
S113127090E0D0D3A501940159D49B01AC01C701DE
S1131280B601C8D299D3609344028D2FC7D82CD805
S1131290C150C09347020150110909F0BECFC5E007
S11312A0D0E087C180917102833209F072C184E178
S11312B090E090933C0280933B0261E38AE190E0EA
S11312C013D680914802811150C0C4E0D0E071C1AE
S11312D062ED71E081E011D8C8E0D0E06AC1D5D8F0
S11312E080937102813439F481E08093460262EF85
S11312F071E003D857C1823409F05BC182E0809366
S1131300460262EF71E081E00E947D014BC1809151
S11313107102833209F046C167C062ED71E081E079
S11313200E947D01C8E0D0E044C1AFD8809371022F
S1131330813409F42BC1833209F03BC183E08093EB
S11313406F02C1E0D0E035C10E947401809148026F
S1131350E82FF0E0E35CFD4F9091710290838F5F82
S113136080934802C3E0D0E024C10DE312E0C0E062
S1131370D0E0F80161918F0180913B0290913C0291
S1131380B3D580913B0290913C02019690933C022C
S113139080933B0221968091480290E0C817D907B8
S11313A044F3C4E0D0E005C19FEB980F9430A0F063
S11313B00E947401909171029E3221F4809148023E
S11313C08093490280914802E82FF0E0E35CFD4FEE
S11313D090838F5F8093480280914902815080936B
S11313E04702C6E0D0E0E5C0E09049028FEF8E0DE1
S11313F08093470268E471E081E00E947D010E2D34
S113140010E0101611060CF03FC00F2EFDE3CF2E96
S1131410F2E0DF2EF02DC8019C01235C3D4F590101
S1131420F60181916F010E94F001D82FC09147020B
S11314306C2F70E080E090E0EBD29B01AC0160E0A7
S113144070E080E291E4D5D32B013C016D2F70E074
S113145080E090E0DFD2A301920168D32B013C012C
S11314606091450270E080E090E0D4D29B01AC0131
S1131470C301B201D0D1A0D260934502C150C09340
S11314804702CA14DB0461F681E0809347020F5FD0
S11314901F4FC0904802D12CF1E0CF1AD1080C158F
S11314A01D050CF03CC08E2D90E09C01225C3D4F4C
S11314B07901F70181917F010E94F001D82FC09139
S11314C047026C2F70E080E090E0A2D29B01AC0157
S11314D060E070E080E291E48CD34B015C016D2FFD
S11314E070E080E090E096D2A50194011FD34B01F7
S11314F05C016091440270E080E090E08BD29B013B
S1131500AC01C501B40187D157D260934402C150E4
S1131510C09347020F5F1F4F0C151D0554F26091D5
S1131520440270E080E090E073D220E030E048ECC8
S113153052E4D5D16B017C016091450270E080E0FA
S113154090E066D29B01AC01C701B60164D1209141
S11315504602213041F4AB01BC0181E090E0D2D4D9
S1131560C7E0D0E026C0223059F4AB01BC018AE0C8
S113157090E0C8D4C7E0D0E01CC0C1E0D0E019C0FE
S1131580C7E0D0E016C0C0E0D0E013C0C2E0D0E0B5
S113159010C00E944502809371028111D5CEC3E030
S11315A0D0E007C00E944502809371028111FCCEF5
S11315B013CFCE01DF91CF911F910F91FF90EF9048
S11315C0DF90CF90BF90AF909F908F907F906F905F
S11315D05F904F9008958130910569F01CF4892B38
S11315E039F038C08230910569F0039791F032C028
S11315F01092720217C00E94450280936E028111FC
S113160034C02EC00E94450280937002882391F159
S113161036C080916E028093730280917202893089
S113162089F41BC0809172028F5F8093720281E003
S113163090E00895809172028F5F8093720282E03D
S113164090E00895809172028F5F8093720283E02C
S113165090E0089580E090E0089580E090E008959F
S1131660809172028930C9F3DDCF80917202893092
S113167009F7F3CF80917202893079F3E3CF809137
S113168072028930B9F6E9CFCF93DF93CDB7DEB7D5
S11316902A970FB6F894DEBF0FBECDBF8FEF81B986
S11316A012B88AB91BB880EF87B98FE088B98AE08D
S11316B0E4E0F1E0DE01119601900D928A95E1F7E4
S11316C0E0E3F2E0108283E090E0A0E0B0E0818308
S11316D09283A383B48385839683A783B08783E9A6
S11316E092E092878187E5E2F2E010828AE090E05E
S11316F0A0E0B0E081839283A383B483858396833F
S1131700A783B08786E991E092878187EAE1F2E0D6
S1131710108282E090E0A0E0B0E081839283A38312
S1131720B48385839683A783B08720E533E032872B
S11317302187EFE0F2E0108281839283A383B48354
S113174085839683A783B0878BE797E09287818709
S1131750E4E0F2E0108281E090E0A0E0B0E0818378
S11317609283A383B48385839683A783B0878BEE08
S11317709AE09287818764E670E080E090E00E94BE
S1131780CD000E94DE000E9465010E945A017E0184
S11317908BE0E80EF11CDE0111966D01F60101915A
S11317A011916F01D80115964D915D916D917C91C8
S11317B0189711968D919D910D90BC91A02D48176D
S11317C059076A077B0781F4F80180810184F28557
S11317D0E02D082E000C990B0995D8018C93F80183
S11317E01582168217821086F80185819681A78159
S11317F0B0850196A11DB11D85839683A783B0870B
S1131800CE14DF0459F680916D028823E1F310921F
S11318106D02C1CF5058BB27AA270ED04DC13ED16F
S113182030F043D120F031F49F3F11F41EF433C162
S11318300EF4E095E7FB29C1E92F4FD180F3BA17E5
S1131840620773078407950718F071F49EF567C162
S11318500EF4E0950B2EBA2FA02D0B01B9019001C7
S11318600C01CA01A0011124FF27591B99F0593F0B
S113187050F4503E68F11A16F040A22F232F342F53
S11318804427585FF3CF469537952795A795F040A1
S11318905395C9F77EF41F16BA0B620B730B840BB6
S11318A0BAF09150A1F0FF0FBB1F661F771F881F6E
S11318B0C2F70EC0BA0F621F731F841F48F48795C6
S11318C077956795B795F7959E3F08F0B3CF9395B5
S11318D0880F08F09927EE0F9795879508950CD0F7
S11318E0EBC0E3D040F0DAD030F021F45F3F19F0E0
S11318F0CCC0511115C1CFC0F0D098F39923C9F3CE
S11319005523B1F3951B550BBB27AA276217730701
S1131910840738F09F5F5F4F220F331F441FAA1FB5
S1131920A9F333D00E2E3AF0E0E830D09150504075
S1131930E695001CCAF729D0FE2F27D0660F771F23
S1131940881FBB1F261737074807AB07B0E809F005
S1131950BB0B802DBF01FF2793585F4F2AF09E3F9A
S1131960510568F092C0DCC05F3FECF3983EDCF3B5
S1131970869577956795B795F7959F5FC9F7880F13
S1131980911D9695879597F90895E1E0660F771F65
S1131990881FBB1F621773078407BA0720F0621BF6
S11319A0730B840BBA0BEE1F88F7E095089504D0EF
S11319B06894B111B5C0089598D088F09F5790F0FD
S11319C0B92F9927B751A0F0D1F0660F771F881F60
S11319D0991F1AF0BA95C9F712C0B13081F09FD09F
S11319E0B1E008959CC0672F782F8827B85F39F03D
S11319F0B93FCCF3869577956795B395D9F73EF4BF
S1131A0090958095709561957F4F8F4F9F4F089566
S1131A10E89409C097FB3EF4909580957095619584
S1131A207F4F8F4F9F4F9923A9F0F92F96E9BB273A
S1131A309395F695879577956795B795F111F8CFB6
S1131A40FAF4BB0F11F460FF1BC06F5F7F4F8F4F21
S1131A509F4F16C0882311F096E911C0772321F017
S1131A609EE8872F762F05C0662371F096E8862FAF
S1131A7070E060E02AF09A95660F771F881FDAF706
S1131A80880F9695879597F9089597F99F6780E849
S1131A9070E060E008959FEF80EC089500240A94BC
S1131AA01616170618060906089500240A94121635
S1131AB01306140605060895092E0394000C11F468
S1131AC0882352F0BB0F40F4BF2B11F460FF04C015
S1131AD06F5F7F4F8F4F9F4F089557FD9058440F6E
S1131AE0551F59F05F3F71F04795880F97FB991F79
S1131AF061F09F3F79F08795089512161306140636
S1131B00551FF2CF4695F1DF08C0161617061806C2
S1131B10991FF1CF86957105610508940895E8949D
S1131B20BB2766277727CB0197F908950BD0C4CF3D
S1131B30B5DF28F0BADF18F0952309F0A6CFABCFB4
S1131B401124EECFCADFA0F3959FD1F3950F50E097
S1131B50551F629FF001729FBB27F00DB11D639F5B
S1131B60AA27F00DB11DAA1F649F6627B00DA11D01
S1131B70661F829F2227B00DA11D621F739FB00DA7
S1131B80A11D621F839FA00D611D221F749F332717
S1131B90A00D611D231F849F600D211D822F762FB0
S1131BA06A2F11249F5750408AF0E1F088234AF0AD
S1131BB0EE0FFF1FBB1F661F771F881F91505040F9
S1131BC0A9F79E3F510570F060CFAACF5F3FECF3B9
S1131BD0983EDCF3869577956795B795F795E795E5
S1131BE09F5FC1F7FE2B880F911D9695879597F9F6
S1131BF00895FA01EE0FFF1F30962105310599F182
S1131C006115710561F48038BFE39B0749F168945D
S1131C109038810561F08038BFEF9B0741F099232C
S1131C2042F5FF3FE1053105210511F1E8940894DF
S1131C30E795D901AA2329F4AB2FBE2FF85FD0F37F
S1131C4010C0FF5F70F4A695E0F7F73950F019F073
S1131C50FF3A38F49F779F930CD00F9007FC90586D
S1131C6008953EF018CF60E070E080E89FE30895A7
S1131C704FE79F775F934F933F932F939ED02F917E
S1131C803F914F915F9152DF05C019F40EF0FDCEE4
S1131C9046CF01CF2ADFC8F39638C0F707F80F9272
S1131CA0E8942BE33AEA48EB5FE74EDF0F920F929A
S1131CB00F924DB75EB70F92C0D0E8EDF0E016D0AA
S1131CC04F915F91EF91FF91E595EE1FFF1F49F052
S1131CD0FE57E0684427EE0F441FFA95E1F741955B
S1131CE0550B32D00F9007FE26C00895DF93CF9393
S1131CF01F930F93FF92EF92DF927B018C01689404
S1131D0005C0DA2EEF011EDFFE01E894A5912591AE
S1131D10359145915591AEF3EF018EDDFE019701AA
S1131D20A801DA9479F7DF90EF90FF900F911F915B
S1131D30CF91DF9108959B01AC0160E070E080E8F1
S1131D409FE3CDCDA2CEACC0D0DEE8F39923D9F386
S1131D50940F511DBBF39150504094F059F08823D7
S1131D6032F0660F771F881F91505040C1F79E3F95
S1131D70510544F7880F911D9695879597F9089515
S1131D805F3FACF0983E9CF0BB27869577956795AE
S1131D90B79508F4B1609395C1F7BB0F58F711F4E8
S1131DA060FFE8CF6F5F7F4F8F4F9F4FE3CFB8CE79
S1131DB00EF076C070CE689468CE97DEC8F399238F
S1131DC0D1F3C6F3DF93CF931F930F93FF92C92FE1
S1131DD0DD2788232AF02197660F771F881FDAF7FB
S1131DE020E030E040E85FEB9FE3883920F0803E5C
S1131DF030F021968F770FDDE0E0F1E003C00BDDDA
S1131E00EDE2F1E073DF8B01BE01EC01FB2E6F57B5
S1131E1071097595771F880B990BFCDD28E132E772
S1131E2041E35FE38FDEAF2D9801AE01FF900F9188
S1131E301F91CF91DF9100DD3FCEFA01DC01AA0FA3
S1131E40BB1F9B01AC01BF5728F42227332744272B
S1131E5050781FC0B75188F4AB2F002446953795AE
S1131E602795011CA395D2F3002069F0220F331F9C
S1131E70441FB395DAF30DD0CDCC61307105A0E8E1
S1131E808A07B94630F49B01AC0166277727882777
S1131E909078309621F020833183428353830895D0
S1131EA09F3F31F0915020F4879577956795B795CA
S1131EB0880F911D9695879597F90895EE0FFF1F4A
S1131EC00024001C0BBE0790F691E02D0994F999AB
S1131ED0FECF92BD81BDF89A992780B50895A6E1F9
S1131EE0B0E044E050E018C0262FF999FECF1FBAA5
S1131EF092BD81BD20BD0FB6F894FA9AF99A0FBE2F
S1131F0001960895242FF1DF252FEFDF00C0ECDFC9
S1131F10272FEBCFDC01CB01FC01F999FECF06C0E2
S1131F20F2BDE1BDF89A319600B40D924150504093
S10B1F30B8F70895F894FFCFFF
S1131F3801000000300225021A020F020402412E99
S1131F48205472616E73616374696F6E7300422EFC
S1131F582053657474696E677300656E74657220C6
S1131F6870696E3A2000456E746572205061796D0F
S1131F78656E743A202020006368616E67653A20B4
S1131F8820202020202020202000446F6E6520205F
S1131F987C20204164644974656D20412020202000
S1131FA87C20202020420041202020202020204284
S1131FB82020202020202020202020002020412014
S1131FC82020207C20202042202020202020636FF5
S1131FD86465207C2020206974656D7300656E74C7
S1131FE86572206F6C6420636F64653A2020004139
S1131FF820202020204220202020202020202020B3
S113200820004120202020202020207C2020202364
S1132018202073657474696E6773207C206D656E07
S11320287500456E7465722050726963653A2020A4
S10720382020200040
S9030000FC
