:10000000ACC00000C9C00000C7C00000C5C00000EF
:10001000C3C00000C1C00000BFC00000BDC00000E0
:10002000BBC00000B9C00000B7C00000B5C00000F0
:10003000B3C00000E7C00000AFC00000ADC00000CA
:10004000ABC00000A9C00000A7C00000A5C0000010
:10005000A3C00000A1C000009FC000009DC0000020
:100060009BC0000099C0000097C0000095C0000030
:1000700093C0000091C000008FC000008DC0000040
:100080008BC0000089C0000087C00000FA01FC019D
:10009000FE01000202020402060208020A022B020A
:1000A000170219021B021D021F0221022302250250
:1000B00027020B076B030E0787036803C1036A055A
:1000C000CB03D103D1038E0A6D0789072B094109A0
:1000D00048095F0965096C0907634236B79BD8A7D1
:1000E0001A39685618AEBAAB558C1D3CB7CC57635D
:1000F000BD6DEDFD753EF6177231BF000000803F0B
:1001000008000000BE922449123EABAAAA2ABECD26
:10011000CCCC4C3E00000080BEABAAAAAA3E000098
:100120000000BF000000803F000000000008417890
:10013000D3BB4387D1133D190E3CC3BD4282AD2BC7
:100140003E68EC8276BED98FE1A93E4C80EFFFBEBF
:1001500001C4FF7F3F000000000011241FBECFEF4D
:10016000D0E4DEBFCDBF12E0A0E0B1E0EAEDFEE1F9
:1001700000E00BBF02C007900D92A430B107D9F781
:1001800022E0A4E0B2E001C01D92A037B207E1F77F
:100190000E94150B0C946B0F33CF6093000170938A
:1001A00001018093020190930301609365027093B3
:1001B0006602809367029093680208958BE08093B3
:1001C00081008DE790E0909389008093880082E021
:1001D00080936F001092850010928400809100013E
:1001E00090910101A0910201B091030180936502F9
:1001F00090936602A0936702B09368028FB78068FD
:100200008FBF08951F920F920FB60F9211248F93F4
:100210009F93AF93BF938091650290916602A091E6
:100220006702B09168020197A109B1098093650244
:1002300090936602A0936702B0936802892B8A2B81
:100240008B2B99F481E08093690280910001909159
:100250000101A0910201B091030180936502909386
:100260006602A0936702B0936802BF91AF919F911D
:100270008F910F900FBE0F901F90189518161906AA
:100280005CF00895000021503109E1F74F5F5F4FA6
:100290008417950719F4089540E050E027E033E013
:1002A000F1CF10988BB9119A0000119882E090E07C
:1002B000E5CF089581E0F5CF0895813118F4815894
:1002C000F0CF08958155EDCF089584E690E0D6DF14
:1002D00088E3E7DF86E0E5DF8FE0E3DF81E0E1DF71
:1002E0008AE090E0CBCF0895109A8BB9119A000064
:1002F000119881E090E0C2CF08950F931F93CF93A0
:10030000DF93182FEB01D6DF8881882351F001E0BD
:10031000010F812FD2DF8991E7DF102F88818111B2
:10032000F6CFDF91CF911F910F9108958130910504
:1003300059F024F4892B09F444C04CC08230910553
:1003400049F0039771F046C020916B02213009F00B
:1003500046C00BC080916B028130E9F081E090E0F3
:10036000089580916B028130C1F56EE071E081E00B
:10037000C4DF80916F02813431F482E080936B029C
:1003800082E090E008958234F9F484E080936B0277
:1003900082E090E008956EE171E081E0AEDF80914F
:1003A0006F02813431F482E080936B0283E090E04D
:1003B0000895823461F484E080936B0283E090E0DE
:1003C000089581E090E0089582E090E0089583E050
:1003D00090E0089580E090E0089581E090E0089535
:1003E00090E0FC01F197E930F105B0F4EA5BFF4FD2
:1003F0000C942F0F81E0089582E0089583E0089522
:1004000084E0089585E0089586E0089587E00895E2
:1004100088E0089589E0089580E0089590E08A30AA
:100420009105B8F4FC01E15BFF4F0C942F0F81E3C1
:10043000089582E3089583E3089584E3089585E3AE
:10044000089586E3089587E3089588E3089589E38E
:10045000089580E0089580E30895843638F48A3062
:1004600038F491E0811105C090E003C093E001C031
:1004700092E0892F0895662339F0FC01860F911DC3
:100480001192E817F907E1F708958FEE88B9000097
:10049000309B29C0319B29C0329B29C0339B29C086
:1004A0008FED88B90000309B26C0319B26C0329B5F
:1004B00026C0339B26C08FEB88B90000309B23C039
:1004C000319B23C0329B23C0339B23C08FE788B965
:1004D0000000309B20C0319B20C0329B20C0339B4A
:1004E00020C080E0089581E3089584E3089587E3C0
:1004F00008958EE2089582E3089585E3089588E3E0
:10050000089580E3089583E3089586E3089589E3D9
:10051000089583E2089581E4089582E4089583E4D0
:10052000089584E40895DF92EF92FF920F931F9352
:10053000CF93DF93EC018130910569F11CF4892B95
:1005400049F0A0C08230910509F43DC0039709F439
:100550008BC098C083E080936B028AE190E00E9498
:10056000380F813309F491C060E384E190E00E9488
:10057000450F60E385E190E00E94450F60E386E16E
:1005800090E00E94450F60E387E190E00E94450FF4
:10059000C1E0D0E07CC01092640284E190E09093CE
:1005A0006302809362021092610267E08AE592E042
:1005B00062DF80916B02833009F069C06AE271E00A
:1005C00081E09BDE57C080916D02833209F052C0FA
:1005D00010C08ADE80916402E82FF0E0E65AFD4FF9
:1005E00090916D0290838F5F80936402C2E0D0E0AF
:1005F0004EC01092610284E190E090936302809378
:10060000620280E271DEE09064028E2D90E001973C
:10061000181619061CF50AE512E08E2D90E09C01D3
:10062000275A3D4F7901DD24D394C0916202D091C5
:100630006302CE010E94380FF80191918F01891356
:10064000D09261022196D0936302C09362020E158C
:100650001F0559F780916102811109C081E08093E3
:100660006B02C3E0D0E013C0C1E0D0E010C0C3E033
:10067000D0E00DC00ADF80936D028111AACFC2E0E5
:10068000D0E005C0C0E0D0E002C0C1E0D0E0CE01C3
:10069000DF91CF911F910F91FF90EF90DF90089520
:1006A0004F925F926F927F928F929F92AF92BF9282
:1006B000EF92FF920F931F93CF93DF93EC018A3059
:1006C000910508F0AEC3FC01E75AFF4F0C942F0FC1
:1006D000C5E0D0E0D9C31092560210925702109292
:1006E0005802109259021092550210925402109220
:1006F0005302109252021092510267E08AE492E093
:10070000BADE80916B02823009F0BEC397C3BDDEB2
:1007100080936D028134C9F481E090E00E94400F23
:100720009B01AC0160915602709157028091580272
:10073000909159020E94DC0B60935602709357020D
:10074000809358029093590272C3823409F09CC37B
:100750008AE090E00E94400F9B01AC01609156023C
:100760007091570280915802909159020E94DC0BBF
:1007700060935602709357028093580290935902E7
:1007800056C383DE80936D02813409F49CC18234A8
:1007900009F07AC353C380916D02833209F09AC184
:1007A000BDC173DE80936D02833209F03DC383E0E7
:1007B00080936B02C1E0D0E067C3839480925202C1
:1007C000809152024ADE809355029FEF980F9093DA
:1007D0005302E82EF12C1E141F040CF04FC000E051
:1007E00010E06091520270E080E090E00E94DB0C2B
:1007F0002B013C01C09153026C2F70E080E090E02F
:100800000E94D90C4B015C019B01AC0160E070E0DF
:1008100080E291E40E94CA0D9B01AC01C301B201C8
:100820000E94400C0E94AD0CD62FA501940160E0FF
:1008300070E080E291E40E94CA0D4B015C016D2FD3
:1008400070E080E090E00E94DB0CA50194010E9422
:10085000670D9B01AC01C301B201ADD70E94AD0C85
:10086000609352028D2FDADD3FDDC150C0935302F9
:100870000F5F1F4F0E151F0509F0B3CF81E0809366
:1008800053028EE231DD02E010E06091510270E02F
:1008900080E090E00E94DB0C4B015C01C0915302B0
:1008A0006C2F70E080E090E00E94D90C2B013C019D
:1008B0009B01AC0160E070E080E291E40E94CA0D0F
:1008C0009B01AC01C501B401DBD70E94AD0CD62F52
:1008D000A301920160E070E080E291E40E94CA0D01
:1008E0002B013C016D2F70E080E090E00E94DB0C5A
:1008F000A30192010E94670D9B01AC01C501B401E7
:100900005AD70E94AD0C609351028D2F87DDECDC2D
:10091000C150C09353020150110909F0B6CF8AE0CB
:1009200090E00E94400F2B013C010E94A80C4B015B
:100930005C01C62F60935202072E000C880B990BA6
:100940000E94DB0C9B01AC01C301B20134D720E053
:1009500030E048EC52E40E94670DFAD760935102F0
:1009600080E2C2DC80E2C0DC80E2BEDCC33618F08C
:10097000839480925202809152026FDD80935502DF
:100980009FEF980F90935302E82EF12C1E141F0432
:100990000CF04AC000E010E06091520270E080E08C
:1009A00090E00E94DB0C2B013C01C09153026C2FA4
:1009B00070E080E090E0FDD74B015C019B01AC0151
:1009C00060E070E080E291E40E94CA0D9B01AC01FE
:1009D000C301B20155D7C1D7D62FA501940160E05C
:1009E00070E080E291E40E94CA0D4B015C016D2F22
:1009F00070E080E090E0DFD7A50194010E94670DD0
:100A00009B01AC01C301B201D6D6A7D760935202B5
:100A10008D2F04DD69DCC150C09353020F5F1F4F5F
:100A2000E016F10609F0B8CF81E0809353028EE220
:100A30005BDC02E010E06091510270E080E090E049
:100A4000BAD74B015C01C09153026C2F70E080E07B
:100A500090E0AFD72B013C019B01AC0160E070E05E
:100A600080E291E40E94CA0D9B01AC01C501B40172
:100A700007D773D7D62FA301920160E070E080E220
:100A800091E40E94CA0D2B013C016D2F70E080E0C3
:100A900090E091D7A30192010E94670D9B01AC01E8
:100AA000C501B40188D659D7609351028D2FB6DCA9
:100AB0001BDCC150C09353020150110909F0BBCF98
:100AC000C2E0D0E0E1C166E371E081E016DCC6E09F
:100AD000D0E0DAC1DADC80936D028823B9F09FEBB5
:100AE000980F943098F000DC90916D029E3221F4C2
:100AF000809154028093550280915402E82FF0E0D7
:100B0000E65BFD4F90838F5F809354028091550286
:100B1000815080935302C7E0D0E0B6C168E471E031
:100B200081E0EBDB80905502E82CF12C1E141F04B1
:100B30000CF03EC00AE412E0C7019C01265B3D4F69
:100B40005901E801F80181918F01CEDB888148DCF1
:100B5000982EC09153026C2F70E080E090E029D76E
:100B60009B01AC0160E070E080E291E40E94CA0D5C
:100B70002B013C01692D70E080E090E01CD7A301BF
:100B80009201A5D72B013C016091520270E080E0F8
:100B900090E011D79B01AC01C301B2010DD6DDD6A7
:100BA00060935202C150C0935302A016B10649F699
:100BB0008EE29ADB81E080935302FFEFEF1AFF0A87
:100BC000A0905402B12C21E0A21AB108EA14FB044F
:100BD0000CF03EC0082D10E0055B1D4FE801F80148
:100BE00081918F0181DB8881FBDBD82FC09153027B
:100BF0006C2F70E080E090E0DCD69B01AC0160E0FF
:100C000070E080E291E4C6D72B013C016D2F70E0CB
:100C100080E090E0D0D6A301920159D72B013C018E
:100C20006091510270E080E090E0C5D69B01AC017C
:100C3000C301B201C1D591D660935102C150C09396
:100C40005302FFEFEF1AFF0AEA14FB040CF4C6CFBD
:100C50006091510270E080E090E0ABD620E030E09F
:100C600048EC52E40DD64B015C016091520270E0F9
:100C700080E090E09ED69B01AC01C501B4019CD5FB
:100C800020915602309157024091580250915902DA
:100C900092D52B013C015CD64B015C01C62F6093C1
:100CA0005202072E000C880B990B85D69B01AC01D4
:100CB000C301B20180D520E030E048EC52E407D710
:100CC00047D66093510280E20FDBC33618F083945D
:100CD0008092520280915202C0DB809355029FEFB6
:100CE000980F90935302E82EF12C1E141F040CF061
:100CF00046C000E010E06091520270E080E090E0B9
:100D00005AD62B013C01C09153026C2F70E080E059
:100D100090E04FD64B015C019B01AC0160E070E0BC
:100D200080E291E437D79B01AC01C301B201A8D5A1
:100D300014D6D62FA501940160E070E080E291E422
:100D400029D74B015C016D2F70E080E090E033D635
:100D5000A5019401BCD69B01AC01C301B2012BD506
:100D6000FCD5609352028D2F59DBBEDAC150C0937F
:100D700053020F5F1F4FE016F10609F0BCCF81E070
:100D8000809353028EE2B0DA02E010E060915102EB
:100D900070E080E090E00FD64B015C01C0915302FF
:100DA0006C2F70E080E090E004D62B013C019B01A9
:100DB000AC0160E070E080E291E4ECD69B01AC0114
:100DC000C501B4015DD5C9D5D62FA301920160E05C
:100DD00070E080E291E4DED62B013C016D2F70E0E3
:100DE00080E090E0E8D5A301920171D69B01AC01AF
:100DF000C501B401E0D4B1D5609351028D2F0EDB53
:100E000073DAC150C09353020150110909F0BECFEB
:100E1000C8E0D0E039C0C1E0D0E036C0C3E0D0E0E7
:100E200033C0C0E0D0E030C0C9E0D0E02DC06AE5FA
:100E300071E081E062DAC4E0D0E026C067E771E0EB
:100E400081E05BDA81E090E00E94400F2B013C01E1
:100E50007FD54B015C01C62F60935202072E000C18
:100E6000880B990BA8D59B01AC01C301B201A3D497
:100E700020E030E048EC52E42AD66AD56093510273
:100E8000C33608F09ACC9CCCCE01DF91CF911F9154
:100E90000F91FF90EF90BF90AF909F908F907F90B9
:100EA0006F905F904F9008954F925F926F927F92F4
:100EB0008F929F92AF92BF92CF92DF92EF92FF926A
:100EC0000F931F93CF93DF93EC018930910508F0C6
:100ED0002BC3FC01ED59FF4FC2C71092490210927B
:100EE0004802109247021092460210924502109258
:100EF000440267E08DE392E0BEDA80916B028430B9
:100F000009F028C36CE871E081E0F7D9C2E0D0E0D5
:100F100021C3BBDA80936D02813429F46DEA71E05C
:100F200081E0EBD907C3823409F014C36FEB71E0A1
:100F300081E0E3D981E090E0A3D74B015C0108D5C3
:100F40006B017C0170933C0260933B02C62F60935F
:100F50004502072E000C880B990B2DD59B01AC0187
:100F6000C501B40128D420E030E048EC52E4AFD50C
:100F7000EFD460934402C33618F0C394C092450284
:100F8000809145026ADA809349029FEF980F90930F
:100F90004702E82EF12C1E141F040CF046C000E09E
:100FA00010E06091450270E080E090E004D52B01F4
:100FB0003C01C09147026C2F70E080E090E0F9D4D2
:100FC0004B015C019B01AC0160E070E080E291E4C8
:100FD000E1D59B01AC01C301B20152D4BED4D62FDE
:100FE000A501940160E070E080E291E4D3D54B016B
:100FF0005C016D2F70E080E090E0DDD4A5019401EC
:1010000066D59B01AC01C301B201D5D3A6D46093D0
:1010100045028D2F03DA68D9C150C09347020F5F94
:101020001F4F0E151F0509F0BCCF81E080934702CA
:101030008EE25AD902E010E06091440270E080E054
:1010400090E0B9D46B017C01C09147026C2F70E035
:1010500080E090E0AED44B015C019B01AC0160E00C
:1010600070E080E291E496D59B01AC01C701B60126
:1010700007D473D4D62FA501940160E070E080E21C
:1010800091E488D54B015C016D2F70E080E090E029
:1010900092D4A50194011BD59B01AC01C701B601F7
:1010A0008AD35BD4609344028D2FB8D91DD9C15027
:1010B000C09347020150110909F0BECF8AE090E0C9
:1010C000DFD64B015C0144D46B017C0170933C0280
:1010D00060933B02C62F60934502072E000C880BDD
:1010E000990B69D49B01AC01C501B40164D320E024
:1010F00030E048EC52E4EBD42BD46093440280E21D
:10110000F3D880E2F1D880E2EFD8C33618F0C39468
:10111000C092450280914502A0D9809349029FEF79
:10112000980F90934702E82EF12C1E141F040CF028
:1011300046C000E010E06091450270E080E090E081
:101140003AD42B013C01C09147026C2F70E080E043
:1011500090E02FD44B015C019B01AC0160E070E09A
:1011600080E291E417D59B01AC01C301B20188D3A1
:10117000F4D3D62FA501940160E070E080E291E401
:1011800009D54B015C016D2F70E080E090E013D435
:10119000A50194019CD49B01AC01C301B2010BD306
:1011A000DCD3609345028D2F39D99ED8C150C093AE
:1011B00047020F5F1F4FE016F10609F0BCCF81E038
:1011C000809347028EE290D802E010E060914402E2
:1011D00070E080E090E0EFD36B017C01C0914702AA
:1011E0006C2F70E080E090E0E4D34B015C019B0148
:1011F000AC0160E070E080E291E4CCD49B01AC01F2
:10120000C701B6013DD3A9D3D62FA501940160E053
:1012100070E080E291E4BED44B015C016D2F70E080
:1012200080E090E0C8D3A501940151D49B01AC01AA
:10123000C701B601C0D291D3609344028D2FEED87E
:1012400053D8C150C09347020150110909F0BECFD5
:10125000C5E0D0E07FC180916D02833209F06AC1A0
:1012600084E190E090933C0280933B0261E38AE149
:1012700090E00BD68091480281114EC0C4E0D0E0CE
:1012800069C162ED71E081E038D8C8E0D0E062C1A8
:10129000FCD880936D02813439F481E0809346025A
:1012A00062EF71E02AD84FC1823409F053C182E065
:1012B0008093460262EF71E081E01FD844C18091C3
:1012C0006D02833209F03FC166C062ED71E081E0DA
:1012D00014D8C8E0D0E03EC1D8D880936D028134E4
:1012E00009F425C1833209F035C183E080936B0294
:1012F000C1E0D0E02FC10E94740180914802E82F24
:10130000F0E0E35CFD4F90916D0290838F5F8093DE
:101310004802C3E0D0E01EC10DE312E0C0E0D0E01F
:10132000F80161918F0180913B0290913C02ADD513
:1013300080913B0290913C02019690933C028093F5
:101340003B0221968091480290E0C817D90744F3E8
:10135000C4E0D0E0FFC09FEB980F9430A0F00E9453
:10136000740190916D029E3221F480914802809325
:10137000490280914802E82FF0E0E35CFD4F908342
:101380008F5F809348028091490281508093470289
:10139000C6E0D0E0DFC0E09049028FEF8E0D809371
:1013A00047020E2D10E0101611060CF03EC00F2E55
:1013B000FDE3CF2EF2E0DF2EF02DC8019C01235C6F
:1013C0003D4F5901F60181916F010AD8D82FC09184
:1013D00047026C2F70E080E090E0EBD29B01AC0103
:1013E00060E070E080E291E4D5D32B013C016D2FE9
:1013F00070E080E090E0DFD2A301920168D32B017E
:101400003C016091450270E080E090E0D4D29B0105
:10141000AC01C301B201D0D1A0D260934502C1504A
:10142000C0934702CA14DB0469F681E08093470247
:101430000F5F1F4FC0904802D12CF1E0CF1AD108A6
:101440000C151D050CF03CC08E2D90E09C01225C1B
:101450003D4F7901F70181917F010E94F001D82F62
:10146000C09147026C2F70E080E090E0A2D29B0117
:10147000AC0160E070E080E291E48CD34B015C0150
:101480006D2F70E080E090E096D2A50194011FD30B
:101490004B015C016091440270E080E090E08BD2EF
:1014A0009B01AC01C501B40187D157D260934402BE
:1014B000C150C09347020F5F1F4F0C151D0554F21A
:1014C0006091440270E080E090E073D220E030E070
:1014D00048EC52E4D5D16B017C016091450270E08B
:1014E00080E090E066D29B01AC01C701B60164D1F7
:1014F00020914602213041F4AB01BC0181E090E033
:10150000D2D4C7E0D0E026C0223059F4AB01BC01F0
:101510008AE090E0C8D4C7E0D0E01CC0C1E0D0E0D1
:1015200019C0C7E0D0E016C0C0E0D0E013C0C2E0F0
:10153000D0E010C00E94450280936D028111DBCE85
:10154000C3E0D0E007C00E94450280936D02811184
:1015500002CF19CFCE01DF91CF911F910F91FF9054
:10156000EF90DF90CF90BF90AF909F908F907F9043
:101570006F905F904F9008958130910569F01CF451
:10158000892B39F038C08230910569F0039791F0CA
:1015900032C010926E0217C00E94450280936A0208
:1015A000811134C02EC00E94450280936C028823B2
:1015B00091F136C080916A0280936F0280916E0231
:1015C000893089F41BC080916E028F5F80936E0218
:1015D00081E090E0089580916E028F5F80936E02AB
:1015E00082E090E0089580916E028F5F80936E029A
:1015F00083E090E0089580E090E0089580E090E03E
:10160000089580916E028930C9F3DDCF80916E021A
:10161000893009F7F3CF80916E02893079F3E3CFF7
:1016200080916E028930B9F6E9CFCF93DF93CDB7C1
:10163000DEB72A970FB6F894DEBF0FBECDBF8FEF8F
:1016400081B912B88AB91BB880EF87B98FE088B921
:101650008AE0E4E0F1E0DE01119601900D928A95B6
:10166000E1F7E0E3F2E0108283E090E0A0E0B0E098
:1016700081839283A383B48385839683A783B08772
:1016800083E992E092878187E5E2F2E010828AE0C6
:1016900090E0A0E0B0E081839283A383B48385834C
:1016A0009683A783B08786E991E092878187EAE1F4
:1016B000F2E0108282E090E0A0E0B0E081839283CB
:1016C000A383B48385839683A783B08720E533E023
:1016D00032872187EFE0F2E0108281839283A38337
:1016E000B48385839683A783B08784E597E0928748
:1016F0008187E4E0F2E0108281E090E0A0E0B0E0D9
:1017000081839283A383B48385839683A783B087E1
:101710008CEB9AE09287818764E670E080E090E04D
:101720000E94CD000E94DE000E9465010E945A01C5
:101730007E018BE0E80EF11CDE0111966D01F601D1
:10174000019111916F01D80115964D915D916D91A7
:101750007C91189711968D919D910D90BC91A02D23
:10176000481759076A077B0781F4F80180810184D3
:10177000F285E02D082E000C990B0995D8018C9369
:10178000F8011582168217821086F80185819681EC
:10179000A781B0850196A11DB11D85839683A7837E
:1017A000B087CE14DF0459F6809169028823E1F3F3
:1017B00010926902C1CF5058BB27AA270ED04DC145
:1017C0003ED130F043D120F031F49F3F11F41EF4AC
:1017D00033C10EF4E095E7FB29C1E92F4FD180F327
:1017E000BA17620773078407950718F071F49EF51E
:1017F00067C10EF4E0950B2EBA2FA02D0B01B90195
:1018000090010C01CA01A0011124FF27591B99F076
:10181000593F50F4503E68F11A16F040A22F232F82
:10182000342F4427585FF3CF469537952795A795D2
:10183000F0405395C9F77EF41F16BA0B620B730B79
:10184000840BBAF09150A1F0FF0FBB1F661F771FEA
:10185000881FC2F70EC0BA0F621F731F841F48F49F
:10186000879577956795B795F7959E3F08F0B3CF25
:101870009395880F08F09927EE0F9795879508950F
:101880000CD0EBC0E3D040F0DAD030F021F45F3F71
:1018900019F0CCC0511115C1CFC0F0D098F39923E5
:1018A000C9F35523B1F3951B550BBB27AA27621724
:1018B0007307840738F09F5F5F4F220F331F441F69
:1018C000AA1FA9F333D00E2E3AF0E0E830D09150A1
:1018D0005040E695001CCAF729D0FE2F27D0660F8E
:1018E000771F881FBB1F261737074807AB07B0E8CD
:1018F00009F0BB0B802DBF01FF2793585F4F2AF0E3
:101900009E3F510568F092C0DCC05F3FECF3983E0B
:10191000DCF3869577956795B795F7959F5FC9F73F
:10192000880F911D9695879597F90895E1E0660FC8
:10193000771F881FBB1F621773078407BA0720F041
:10194000621B730B840BBA0BEE1F88F7E0950895AA
:1019500004D06894B111B5C0089598D088F09F570D
:1019600090F0B92F9927B751A0F0D1F0660F771FEB
:10197000881F991F1AF0BA95C9F712C0B13081F0CB
:101980009FD0B1E008959CC0672F782F8827B85F5B
:1019900039F0B93FCCF3869577956795B395D9F72C
:1019A0003EF490958095709561957F4F8F4F9F4F36
:1019B0000895E89409C097FB3EF490958095709542
:1019C00061957F4F8F4F9F4F9923A9F0F92F96E98B
:1019D000BB279395F695879577956795B795F11100
:1019E000F8CFFAF4BB0F11F460FF1BC06F5F7F4F9D
:1019F0008F4F9F4F16C0882311F096E911C07723AF
:101A000021F09EE8872F762F05C0662371F096E8B7
:101A1000862F70E060E02AF09A95660F771F881F86
:101A2000DAF7880F9695879597F9089597F99F6744
:101A300080E870E060E008959FEF80EC0895002456
:101A40000A941616170618060906089500240A9423
:101A500012161306140605060895092E0394000CA9
:101A600011F4882352F0BB0F40F4BF2B11F460FF38
:101A700004C06F5F7F4F8F4F9F4F089557FD905861
:101A8000440F551F59F05F3F71F04795880F97FB42
:101A9000991F61F09F3F79F08795089512161306FC
:101AA0001406551FF2CF4695F1DF08C0161617062B
:101AB0001806991FF1CF8695710561050894089560
:101AC000E894BB2766277727CB0197F908950BD0B9
:101AD000C4CFB5DF28F0BADF18F0952309F0A6CF00
:101AE000ABCF1124EECFCADFA0F3959FD1F3950FB2
:101AF00050E0551F629FF001729FBB27F00DB11D92
:101B0000639FAA27F00DB11DAA1F649F6627B00D21
:101B1000A11D661F829F2227B00DA11D621F739F0A
:101B2000B00DA11D621F839FA00D611D221F749F18
:101B30003327A00D611D231F849F600D211D822F5F
:101B4000762F6A2F11249F5750408AF0E1F08823A6
:101B50004AF0EE0FFF1FBB1F661F771F881F9150B3
:101B60005040A9F79E3F510570F060CFAACF5F3F6C
:101B7000ECF3983EDCF3869577956795B795F795E6
:101B8000E7959F5FC1F7FE2B880F911D969587956E
:101B900097F90895FA01EE0FFF1F309621053105E0
:101BA00099F16115710561F48038BFE39B0749F134
:101BB00068949038810561F08038BFEF9B0741F051
:101BC000992342F5FF3FE1053105210511F1E89424
:101BD0000894E795D901AA2329F4AB2FBE2FF85F0B
:101BE000D0F310C0FF5F70F4A695E0F7F73950F01E
:101BF00019F0FF3A38F49F779F930CD00F9007FCB1
:101C0000905808953EF018CF60E070E080E89FE3C0
:101C100008954FE79F775F934F933F932F939ED005
:101C20002F913F914F915F9152DF05C019F40EF053
:101C3000FDCE46CF01CF2ADFC8F39638C0F707F8AC
:101C40000F92E8942BE33AEA48EB5FE74EDF0F92FE
:101C50000F920F924DB75EB70F92C0D0E8EDF0E053
:101C600016D04F915F91EF91FF91E595EE1FFF1F09
:101C700049F0FE57E0684427EE0F441FFA95E1F75C
:101C80004195550B32D00F9007FE26C00895DF9383
:101C9000CF931F930F93FF92EF92DF927B018C0102
:101CA000689405C0DA2EEF011EDFFE01E894A591CD
:101CB0002591359145915591AEF3EF018EDDFE01F1
:101CC0009701A801DA9479F7DF90EF90FF900F91D8
:101CD0001F91CF91DF9108959B01AC0160E070E00E
:101CE00080E89FE3CDCDA2CEACC0D0DEE8F399234F
:101CF000D9F3940F511DBBF39150504094F059F01B
:101D0000882332F0660F771F881F91505040C1F72B
:101D10009E3F510544F7880F911D9695879597F939
:101D200008955F3FACF0983E9CF0BB278695779571
:101D30006795B79508F4B1609395C1F7BB0F58F755
:101D400011F460FFE8CF6F5F7F4F8F4F9F4FE3CF5E
:101D5000B8CE0EF076C070CE689468CE97DEC8F329
:101D60009923D1F3C6F3DF93CF931F930F93FF9281
:101D7000C92FDD2788232AF02197660F771F881F38
:101D8000DAF720E030E040E85FEB9FE3883920F0AD
:101D9000803E30F021968F770FDDE0E0F1E003C068
:101DA0000BDDEDE2F1E073DF8B01BE01EC01FB2EF8
:101DB0006F5771097595771F880B990BFCDD28E12A
:101DC00032E741E35FE38FDEAF2D9801AE01FF9074
:101DD0000F911F91CF91DF9100DD3FCEFA01DC0121
:101DE000AA0FBB1F9B01AC01BF5728F42227332742
:101DF000442750781FC0B75188F4AB2F0024469574
:101E000037952795011CA395D2F3002069F0220F86
:101E1000331F441FB395DAF30DD0CDCC613071057B
:101E2000A0E88A07B94630F49B01AC016627772702
:101E300088279078309621F0208331834283538322
:101E400008959F3F31F0915020F4879577956795DD
:101E5000B795880F911D9695879597F90895EE0F80
:101E6000FF1F0024001C0BBE0790F691E02D099483
:101E7000F999FECF92BD81BDF89A992780B5089552
:101E8000A6E1B0E044E050E018C0262FF999FECF5B
:101E90001FBA92BD81BD20BD0FB6F894FA9AF99A87
:101EA0000FBE01960895242FF1DF252FEFDF00C02C
:101EB000ECDF272FEBCFDC01CB01FC01F999FECF42
:101EC00006C0F2BDE1BDF89A319600B40D924150C2
:0A1ED0005040B8F70895F894FFCFD2
:101EDA0001000000300225021A020F020402412EFC
:101EEA00205472616E73616374696F6E7300422E5F
:101EFA002053657474696E677300656E7465722029
:101F0A0070696E3A2000456E746572205061796D71
:101F1A00656E743A202020006368616E67653A2016
:101F2A0020202020202020202000446F6E652020C1
:101F3A007C20204164644974656D20412020202062
:101F4A007C202020204200412020202020202042E6
:101F5A002020202020202020202020002020412076
:101F6A002020207C20202042202020202020636F57
:101F7A006465207C2020206974656D7300656E7429
:101F8A006572206E657720636F64653A2020004190
:101F9A002020202020422020202020202020202015
:101FAA0020004120202020202020207C20202023C7
:101FBA00202073657474696E6773207C206D656E6A
:101FCA007500456E7465722050726963653A202007
:041FDA0020202000A3
:00000001FF
