S00D00006C616231302E7372656387
S1130000ACC00000C9C00000C7C00000C5C00000EB
S1130010C3C00000C1C00000BFC00000BDC00000DC
S1130020BBC00000B9C00000B7C00000B5C00000EC
S1130030B3C0000018C10000AFC00000ADC0000094
S1130040ABC00000A9C00000A7C00000A5C000000C
S1130050A3C00000A1C000009FC000009DC000001C
S11300609BC0000099C0000097C0000095C000002C
S113007093C0000091C000008FC000008DC000003C
S11300808BC0000089C0000087C0000046024802FF
S11300904A024C024E0250025202540256027702A5
S11300A063026502670269026B026D026F027102EC
S11300B073025607BE03DC0369055907A105DE0573
S11300C0AC05C505C505B70A8F07AB0728093E0966
S11300D04C0963096909770907634236B79BD8A7B6
S11300E01A39685618AEBAAB558C1D3CB7CC576359
S11300F0BD6DEDFD753EF6177231BF000000803F07
S113010008000000BE922449123EABAAAA2ABECD22
S1130110CCCC4C3E00000080BEABAAAAAA3E000094
S11301200000BF000000803F00000000000841788C
S1130130D3BB4387D1133D190E3CC3BD4282AD2BC3
S11301403E68EC8276BED98FE1A93E4C80EFFFBEBB
S113015001C4FF7F3F000000000011241FBECFEF49
S1130160D0E4DEBFCDBF12E0A0E0B1E0ECEDFFE1F2
S113017000E00BBF02C007900D92A832B107D9F777
S113018022E0A8E2B2E001C01D92A23AB207E1F770
S11301900E94570B0C94EC0F33CF21E020937C008A
S11301A0209178003091790030936B0220936A0299
S11301B0E7E8F3E13197F1F700C0000020916A020B
S11301C030916B02A901415051094336510540F465
S11301D040917C00413021F421E02093A002089555
S11301E02538334040F020917C00213021F422E076
S11301F02093A00208951092A00208956093000134
S1130200709301018093020190930301609396021D
S113021070939702809398029093990208958BE0CB
S1130220809381008DE790E090938900809388000B
S113023082E080936F001092850010928400809178
S1130240000190910101A0910201B09103018093FA
S1130250960290939702A0939802B09399028FB755
S113026080688FBF08951F920F920FB60F921124CA
S11302708F939F93AF93BF9380919602909197022F
S1130280A0919802B09199020197A109B1098093B4
S1130290960290939702A0939802B0939902892BA7
S11302A08A2B8B2B99F481E080939A028091000130
S11302B090910101A0910201B091030180939602F3
S11302C090939702A0939802B0939902BF91AF9133
S11302D09F918F910F900FBE0F901F901895181635
S11302E019065CF00895000021503109E1F74F5FD1
S11302F05F4F8417950719F4089540E050E027E014
S113030033E0F1CF589885B9599A0000599882E0A2
S113031090E0E5CF089581E0F5CF0895813118F498
S11303208158F0CF08958155EDCF089584E690E08B
S1130330D6DF88E3E7DF86E0E5DF8FE0E3DF81E017
S1130340E1DF8AE090E0CBCF0895589A85B9599AB5
S11303500000599881E090E0C2CF08950F931F9355
S1130360CF93DF938B01883068F4880F880F880F50
S1130370805CC8DFE801085F1F4F8991E6DFC01782
S1130380D107D9F780E8BEDFDF91CF911F910F919C
S113039008950F931F93CF93DF93182FEB01BBDFC7
S11303A08881882351F001E0010F812FB7DF899103
S11303B0CCDF102F88818111F6CFDF91CF911F916F
S11303C00F9108958130910559F024F4892B09F493
S11303D044C04CC08230910549F0039771F046C087
S11303E020919C02213009F046C00BC080919C02F0
S11303F08130E9F081E090E0089580919C028130A1
S1130400C1F560E271E081E0C4DF8091A102813432
S113041031F482E080939C0282E090E0089582347B
S1130420F9F484E080939C0282E090E0089560E314
S113043071E081E0AEDF8091A102813431F482E089
S113044080939C0283E090E00895823461F484E018
S113045080939C0283E090E0089581E090E0089509
S113046082E090E0089583E090E0089580E090E0D9
S1130470089581E090E0089590E0FC01F197E9305F
S1130480F105B0F4EA5BFF4F0C94B00F81E00895DE
S113049082E0089583E0089584E0089585E0089556
S11304A086E0089587E0089588E0089589E0089536
S11304B080E0089590E08A309105B8F4FC01E15B96
S11304C0FF4F0C94B00F81E3089582E3089583E312
S11304D0089584E3089585E3089586E3089587E302
S11304E0089588E3089589E3089580E0089580E3FA
S11304F00895843638F48A3038F491E0811105C0C7
S113050090E003C093E001C092E0892F0895662330
S113051039F0FC01860F911D1192E817F907E1F7F4
S113052008958FEE88B90000309B29C0319B29C003
S1130530329B29C0339B29C08FED88B90000309BC2
S113054026C0319B26C0329B26C0339B26C08FEB2E
S113055088B90000309B23C0319B23C0329B23C049
S1130560339B23C08FE788B90000309B20C0319BA8
S113057020C0329B20C0339B20C080E0089581E3DB
S1130580089584E3089587E308958EE2089582E34D
S1130590089585E3089588E3089580E3089583E347
S11305A0089586E3089589E3089583E2089581E434
S11305B0089582E4089583E4089584E40895CF922D
S11305C0DF92EF92FF920F931F93CF93DF93EC018F
S11305D08130910569F11CF4892B49F09EC0823069
S11305E0910509F43DC0039709F491C096C083E0D6
S11305F080939C028AE190E00E94B90F813309F450
S11306008FC060E384E190E00E94C60F60E385E15F
S113061090E00E94C60F60E386E190E00E94C60F5E
S113062060E387E190E00E94C60FC1E0D0E082C0A1
S11306301092950284E190E0909394028093930247
S11306401092920267E08BE892E061DF80919C0255
S1130650833009F06FC06CE371E081E09ADE63C01F
S113066080919E02833209F05EC010C06EDE8091DC
S11306709502E82FF0E0E557FD4F90919E0290839C
S11306808F5F80939502C2E0D0E054C01092920232
S113069084E190E0909394028093930280E255DE8B
S11306A0C09095028C2D90E00197181619061CF540
S11306B00BE812E08C2D90E09C0126573D4F790108
S11306C0DD24D394C0919302D0919402CE010E9470
S11306D0B90FF80191918F018913D092920221965A
S11306E0D0939402C09393020E151F0559F780917D
S11306F09202811103C081E080939C02F1E0CF1249
S113070009C083E080939C02C3E0D0E013C0C1E041
S1130710D0E010C0C3E0D0E00DC0C0E0D0E00AC01B
S1130720C1E0D0E007C0FDDE80939E0281119ECF20
S1130730C2E0D0E0CE01DF91CF911F910F91FF90E5
S1130740EF90DF90CF9008954F925F926F927F92D7
S11307508F929F92AF92BF92EF92FF920F931F934B
S1130760CF93DF93EC018A30910528F4FC01E75A1A
S1130770FF4F0C94B00FC0E0D0E0A7C310928702E3
S1130780109288021092890210928A0210928602B4
S113079010928502109284021092830210928202B7
S11307A067E08BE792E0B3DE80919C02823009F02F
S11307B08CC3C2E0D0E089C368E471E081E0E9DD84
S11307C081E090E00E94C10F2B013C010E94290DA1
S11307D04B015C01C62F60938302072E000C880B2B
S11307E0990B0E945C0D9B01AC01C301B2010E94F4
S11307F05C0C20E030E048EC52E40E94E80D0E94DA
S1130800290D60938202C33618F083948092830288
S1130810809183026EDE809386029FEF980F9093FF
S11308208402E82EF12C1E141F040CF045C000E0D5
S113083010E06091830270E080E090E00E945C0D23
S11308404B015C01C09184026C2F70E080E090E069
S11308500E945A0D9B01AC0160E070E080E291E4DB
S11308600E944B0E2B013C019B01AC01C501B4015C
S11308700E94C10C0E942E0DD62F70E080E090E003
S11308800E945C0DA30192010E94E80D9B01AC0142
S1130890C501B4010E945C0C0E942E0D609383027A
S11308A08D2F08DE52DDC150C09384020F5F1F4FAD
S11308B0E016F10609F0BDCF81E0809384028EE258
S11308C044DD02E010E06091820270E080E090E09C
S11308D00E945C0D4B015C01C09184026C2F70E09E
S11308E080E090E00E945A0D9B01AC0160E070E052
S11308F080E291E40E944B0E2B013C019B01AC0170
S1130900C501B4010E94C10C0E942E0DD62F70E0C7
S113091080E090E00E945C0DA30192010E94E80D2A
S11309209B01AC01C501B401C7D70E942E0D609391
S113093082028D2FBFDD09DDC150C09384020150B6
S1130940110909F0C0CF8AE090E00E94C10F2B0189
S11309503C010E94290D4B015C01C62F6093830268
S1130960072E000C880B990B0E945C0D9B01AC01B7
S1130970C301B201A1D720E030E048EC52E40E9468
S1130980E80D0E94290D6093820280E2DEDC80E2A1
S1130990DCDC80E2DADCC33618F0839480928302D4
S11309A080918302A6DD809386029FEF980F909337
S11309B08402E82EF12C1E141F040CF043C000E046
S11309C010E06091830270E080E090E00E945C0D92
S11309D04B015C01C09184026C2F70E080E090E0D8
S11309E00E945A0D9B01AC0160E070E080E291E44A
S11309F00E944B0E2B013C019B01AC01C501B401CB
S1130A00C0D70E942E0DD62F70E080E090E00E94A7
S1130A105C0DA30192010E94E80D9B01AC01C5018C
S1130A20B4014AD70E942E0D609383028D2F42DDBC
S1130A308CDCC150C09384020F5F1F4F0E151F053D
S1130A4009F0BFCF81E0809384028EE27EDC02E075
S1130A5010E06091820270E080E090E00E945C0D02
S1130A604B015C01C09184026C2F70E080E090E047
S1130A700E945A0D9B01AC0160E070E080E291E4B9
S1130A800E944B0E2B013C019B01AC01C501B4013A
S1130A9078D7E4D7D62F70E080E090E00E945C0D18
S1130AA0A30192010E94E80D9B01AC01C501B401B0
S1130AB003D7D4D7609382028D2FFCDC46DCC1506F
S1130AC0C09384020150110909F0C3CFC3E0D0E000
S1130AD0FCC127DD80939E028134C1F481E090E063
S1130AE00E94C10F9B01AC01609187027091880242
S1130AF08091890290918A02E0D660938702709374
S1130B0088028093890290938A02D9C1823409F0C1
S1130B10DCC18AE090E00E94C10F9B01AC016091AE
S1130B208702709188028091890290918A02C5D6C9
S1130B3060938702709388028093890290938A025B
S1130B40BEC1EFDC80939E02813489F1823409F0C6
S1130B50BCC1C2E0D0E0B9C180919E02833271F57C
S1130B6081E490E090938900809388006CE571E0C3
S1130B7081E00FDC81E0E9DBB0908602EB2CF12C04
S1130B801E141F040CF43EC074C0CBDC80939E0280
S1130B90833209F091C183E080939C028FEA90E054
S1130BA09093890080938800C1E0D0E08EC16EE606
S1130BB071E081E0EEDBC6E0D0E087C1B2DC809377
S1130BC09E028823B9F09FEB980F943098F0BDDB18
S1130BD090919E029E3221F4809185028093860238
S1130BE080918502E82FF0E0E558FD4F90838F5FF8
S1130BF08093850280918602815080938402C7E0AD
S1130C00D0E063C1D0918302C09184020BE712E06B
S1130C109C2E9B18F80181918F012EDCA82E6C2F3D
S1130C2070E080E090E046D79B01AC0160E070E0AA
S1130C3080E291E40E944B0E2B013C016A2D70E08E
S1130C4080E090E039D7A3019201C2D72B013C0187
S1130C506D2F70E080E090E02FD79B01AC01C301C1
S1130C60B2012BD6FBD6D62FC1509C12D3CF6093A2
S1130C70830281E08093840260908502FFEFEF1A83
S1130C80FF0A862D90E00197E816F9060CF03FC0A4
S1130C90C0918202EB2CF12C870104581D4F83E094
S1130CA08B0D582E5618D1E0F80181918F01E4DBA9
S1130CB0782E6D2F70E080E090E0FCD69B01AC01B3
S1130CC060E070E080E291E4E6D74B015C01672DBF
S1130CD070E080E090E0F0D6A501940179D74B0153
S1130CE05C016C2F70E080E090E0E6D69B01AC01E3
S1130CF0C501B401E2D5B2D6C62FD1505D12D4CF0E
S1130D00609382028E2D86198D5F80938402609198
S1130D10820270E080E090E0CDD620E030E048EC44
S1130D2052E42FD64B015C016091830270E080E0B5
S1130D3090E0C0D69B01AC01C501B401BED52091A1
S1130D408702309188024091890250918A02B4D579
S1130D502B013C017ED64B015C01C62F60938302BC
S1130D60072E000C880B990BA7D69B01AC01C3017D
S1130D70B201A2D520E030E048EC52E429D769D68C
S1130D806093820280E2E1DAC33618F083948092A1
S1130D90830280918302ADDB809386029FEF980FDC
S1130DA090938402E82EF12C1E141F040CF03CC016
S1130DB000E010E06091830270E080E090E07CD677
S1130DC04B015C01C09184026C2F70E080E090E0E4
S1130DD071D69B01AC0160E070E080E291E45BD7E6
S1130DE02B013C019B01AC01C501B401CAD536D627
S1130DF0D62F70E080E090E05FD6A3019201E8D6A0
S1130E009B01AC01C501B40157D528D66093830278
S1130E108D2F50DB9ADAC150C09384020F5F1F4FAD
S1130E20E016F10609F0C6CF81E0809384028EE2D9
S1130E308CDA02E010E06091820270E080E090E0E1
S1130E403BD64B015C01C09184026C2F70E080E0C2
S1130E5090E030D69B01AC0160E070E080E291E468
S1130E601AD72B013C019B01AC01C501B40189D502
S1130E70F5D5D62F70E080E090E01ED6A301920154
S1130E80A7D69B01AC01C501B40116D5E7D5609383
S1130E9082028D2F0FDB59DAC150C09384020150B6
S1130EA0110909F0C8CFC8E0D0E00FC0C1E0D0E01C
S1130EB00CC0C5E0D0E009C0C9E0D0E006C060E8DD
S1130EC071E081E066DAC4E0D0E0CE01DF91CF9139
S1130ED01F910F91FF90EF90BF90AF909F908F90D4
S1130EE07F906F905F904F9008954F925F926F92B2
S1130EF07F928F929F92AF92BF92CF92DF92EF92A6
S1130F00FF920F931F93CF93DF93EC0189309105E8
S1130F1008F043C3FC01ED59FF4F0C94B00F10923D
S1130F207A0210927902109278021092770210924B
S1130F3076021092750267E08EE692E0E8DA80911C
S1130F409C02843009F02EC36DE971E081E021DA5E
S1130F50C2E0D0E027C3E5DA80939E02813429F40D
S1130F606EEB71E081E015DA0FC3823409F01AC325
S1130F7060ED71E081E00DDA81E090E00E94C10F44
S1130F804B015C0166D56B017C0170936D0260932B
S1130F906C02C62F60937602072E000C880B990B07
S1130FA08BD59B01AC01C501B40186D420E030E0AF
S1130FB048EC52E40DD64DD560937502C33618F053
S1130FC0C394C09276028091760293DA80937A0277
S1130FD09FEF980F90937802E82EF12C1E141F04B3
S1130FE00CF03CC000E010E06091760270E080E01C
S1130FF090E062D54B015C01C09178026C2F70E0E7
S113100080E090E057D59B01AC0160E070E080E2A5
S113101091E441D62B013C019B01AC01C501B40113
S1131020B0D41CD5D62F70E080E090E045D5A30164
S11310309201CED59B01AC01C501B4013DD40ED5BE
S1131040609376028D2F36DA80D9C150C09378022E
S11310500F5F1F4F0E151F0509F0C6CF81E0809367
S113106078028EE272D902E010E06091750270E0BD
S113107080E090E021D56B017C01C09178026C2F57
S113108070E080E090E016D59B01AC0160E070E078
S113109080E291E400D64B015C019B01AC01C701E5
S11310A0B6016FD4DBD4D62F70E080E090E004D595
S11310B0A50194018DD59B01AC01C701B601FCD3F8
S11310C0CDD4609375028D2FF5D93FD9C150C0930B
S11310D078020150110909F0C8CF8AE090E051D795
S11310E04B015C01B6D46B017C0170936D0260937B
S11310F06C02C62F60937602072E000C880B990BA6
S1131100DBD49B01AC01C501B401D6D320E030E0AF
S113111048EC52E45DD59DD46093750280E215D904
S113112080E213D980E211D980E20FD9C33618F0D6
S1131130C394C092760280917602DBD980937A02BE
S11311409FEF980F90937802E82EF12C1E141F0441
S11311500CF03CC000E010E06091760270E080E0AA
S113116090E0AAD44B015C01C09178026C2F70E02E
S113117080E090E09FD49B01AC0160E070E080E2ED
S113118091E489D52B013C019B01AC01C501B4015B
S1131190F8D364D4D62F70E080E090E08DD4A3011E
S11311A0920116D59B01AC01C501B40185D356D477
S11311B0609376028D2F7ED9C8D8C150C09378022F
S11311C00F5F1F4FE016F10609F0C6CF81E0809350
S11311D078028EE2BAD802E010E06091750270E005
S11311E080E090E069D46B017C01C09178026C2F9F
S11311F070E080E090E05ED49B01AC0160E070E0C0
S113120080E291E448D54B015C019B01AC01C7012C
S1131210B601B7D323D4D62F70E080E090E04CD44D
S1131220A5019401D5D49B01AC01C701B60144D3F7
S113123015D4609375028D2F3DD987D8C150C093C2
S113124078020150110909F0C8CFC5E0D0E0AAC165
S113125080919E02833209F097C184E190E09093DB
S11312606D0280936C0261E38AE190E08FD68091F5
S11312707902811183C0C4E0D0E094C163EE71E0CF
S113128081E087D882E061D881E248D881E0809308
S11312907802C8E0D0E086C144D980939E028134AC
S11312A039F481E08093770269EF71E072D865C107
S11312B0823409F077C182E08093770269EF71E0AC
S11312C081E067D85AC180919E02833209F055C1EA
S11312D094C063EE71E081E05CD882E036D881E2AC
S11312E01DD881E080937802C8E0D0E05BC119D9B1
S11312F080939E028091A002813059F463EE71E0E4
S113130048D882E022D881E209D881E0809378022B
S113131014C0823091F46BE072E081E03AD882E04C
S113132014D881E20E948E0182E080937802809139
S11313309E02833209F036C10AC080919E02833234
S113134009F030C180917802813009F429C183E029
S113135080939C02C1E0D0E025C10E94A501809148
S11313607902E82FF0E0E259FD4F90919E029083BC
S11313708F5F80937902C3E0D0E014C10EE612E0DF
S1131380C0E0D0E0F80161918F0180916C029091EE
S11313906D02FCD580916C0290916D020196909340
S11313A06D0280936C0221968091790290E0C817B7
S11313B0D90744F3C4E0D0E0F5C09FEB980F943014
S11313C0A0F00E94A50190919E029E3221F480918A
S11313D0790280937A0280917902E82FF0E0E25951
S11313E0FD4F90838F5F8093790280917A028150C0
S11313F080937802C6E0D0E0D5C0F0907A02DFEFA7
S1131400DF0DCF2CD12C1C141D04A4F5C091760241
S11314100EE612E077247A94F80181918F012CD89A
S1131420E82E6D2F70E080E090E044D39B01AC0186
S113143060E070E080E291E42ED44B015C016E2DFB
S113144070E080E090E038D3A5019401C1D34B0152
S11314505C016C2F70E080E090E02ED39B01AC0126
S1131460C501B4012AD2FAD2C62FD150D711D4CF94
S11314706093760281E08093780280907902FFEF96
S1131480CF1ADF0A882D90E00197C816D9060CF010
S113149040C0C0917502AF2CB12C850101591D4F7C
S11314A083E08F0D782E7818D1E0F80181918F01B7
S11314B00E943C02982E6D2F70E080E090E0FAD2FA
S11314C09B01AC0160E070E080E291E4E4D36B0145
S11314D07C01692D70E080E090E0EED2A7019601D6
S11314E077D36B017C016C2F70E080E090E0E4D254
S11314F09B01AC01C701B601E0D1B0D2C62FD150D7
S1131500D711D3CF8A2D88198D5F80937802C09329
S113151075026091750270E080E090E0CBD220E02B
S113152030E048EC52E42DD26B017C0160917602EC
S113153070E080E090E0BED29B01AC01C701B6012F
S1131540BCD120917702213041F4AB01BC0181E090
S113155090E02AD5C7E0D0E025C0223059F4AB0191
S1131560BC018AE090E020D5C7E0D0E01BC0C1E018
S1131570D0E018C0C7E0D0E015C00E94910280936B
S11315809E0281111ACF31CF0E94910280939E0254
S11315908111E3CEC3E0D0E005C0C0E0D0E002C0DA
S11315A0C1E0D0E0CE01DF91CF911F910F91FF9068
S11315B0EF90DF90CF90BF90AF909F908F907F90EF
S11315C06F905F904F9008958130910569F01CF4FD
S11315D0892B39F038C08230910569F0039791F076
S11315E032C010929F0217C00E94910280939B0206
S11315F0811134C02EC00E94910280939D028823E1
S113160091F136C080919B028093A10280919F0248
S1131610893089F41BC080919F028F5F80939F0261
S113162081E090E0089580919F028F5F80939F02F4
S113163082E090E0089580919F028F5F80939F02E3
S113164083E090E0089580E090E0089580E090E0E9
S1131650089580919F028930C9F3DDCF80919F0264
S1131660893009F7F3CF80919F02893079F3E3CF72
S113167080919F028930B9F6E9CFEAE7F0E08081F2
S1131680806E808308958AB18FEF8AB910928500A5
S11316901092840083EC99E09093870080938600F5
S11316A082E8809380008BE1809381000895CF933A
S11316B0DF93CDB7DEB76C970FB6F894DEBF0FBEDD
S11316C0CDBF8CEF81B982E082B98FEF8AB91BB8A4
S11316D084B915B880EF87B98FE088B98CE0E4E06D
S11316E0F1E0DE01119601900D928A95E1F7EFE5A4
S11316F0F2E0108283E090E0A0E0B0E08183928386
S1131700A383B48385839683A783B0878FED92E008
S113171092878187E4E5F2E010828AE090E0A0E01D
S1131720B0E081839283A383B48385839683A78364
S1131730B08782EE91E092878187E9E4F2E010823B
S113174082E090E0A0E0B0E081839283A383B4833D
S113175085839683A783B08724EA33E03287218781
S1131760EEE3F2E0108281839283A383B4838583C2
S11317709683A783B08785E797E092878187E3E321
S1131780F2E0108281E090E0A0E0B0E081839283F7
S1131790A383B48385839683A783B08724EE3AE03A
S11317A032872187E8E2F2E0108281839283A38367
S11317B0B48385839683A783B0878DEC90E092876A
S11317C0818788E0E0E1F1E0DE011D9601900D9251
S11317D08A95E1F788E0E8E1F1E0DE0155960190B1
S11317E00D928A95E1F7BE01635F7F4F81E00E940D
S11317F0AE01BE016B5E7F4F82E00E94AE013DDF11
S113180042DF8FEA90E0909389008093880083ED13
S113181090E30197F1F700C0000064E670E080E017
S113182090E00E94FE000E940F010E9496010E9417
S11318308B016E019DE0C90ED11CDE0111967D0164
S1131840F701019111917F01D80115964D915D9198
S11318506D917C91189711968D919D910D90BC91ED
S1131860A02D481759076A077B0781F4F801808186
S11318700184F285E02D082E000C990B0995D801FE
S11318808C93F8011582168217821086F8018581DF
S11318909681A781B0850196A11DB11D858396838C
S11318A0A783B087EC14FD0459F680919A0288232B
S11318B0E1F310929A02C1CF5058BB27AA270ED049
S11318C04DC13ED130F043D120F031F49F3F11F4AB
S11318D01EF433C10EF4E095E7FB29C1E92F4FD183
S11318E080F3BA17620773078407950718F071F439
S11318F09EF567C10EF4E0950B2EBA2FA02D0B01B7
S1131900B90190010C01CA01A0011124FF27591B40
S113191099F0593F50F4503E68F11A16F040A22F46
S1131920232F342F4427585FF3CF469537952795B7
S1131930A795F0405395C9F77EF41F16BA0B620BB6
S1131940730B840BBAF09150A1F0FF0FBB1F661FFD
S1131950771F881FC2F70EC0BA0F621F731F841F40
S113196048F4879577956795B795F7959E3F08F066
S1131970B3CF9395880F08F09927EE0F9795879525
S113198008950CD0EBC0E3D040F0DAD030F021F46D
S11319905F3F19F0CCC0511115C1CFC0F0D098F3FE
S11319A09923C9F35523B1F3951B550BBB27AA27DC
S11319B062177307840738F09F5F5F4F220F331F4E
S11319C0441FAA1FA9F333D00E2E3AF0E0E830D01A
S11319D091505040E695001CCAF729D0FE2F27D01D
S11319E0660F771F881FBB1F261737074807AB07EB
S11319F0B0E809F0BB0B802DBF01FF2793585F4F60
S1131A002AF09E3F510568F092C0DCC05F3FECF3C2
S1131A10983EDCF3869577956795B795F7959F5F24
S1131A20C9F7880F911D9695879597F90895E1E078
S1131A30660F771F881FBB1F621773078407BA07D7
S1131A4020F0621B730B840BBA0BEE1F88F7E09532
S1131A50089504D06894B111B5C0089598D088F061
S1131A609F5790F0B92F9927B751A0F0D1F0660F86
S1131A70771F881F991F1AF0BA95C9F712C0B130A1
S1131A8081F09FD0B1E008959CC0672F782F8827FC
S1131A90B85F39F0B93FCCF3869577956795B395E0
S1131AA0D9F73EF490958095709561957F4F8F4F4F
S1131AB09F4F0895E89409C097FB3EF49095809554
S1131AC0709561957F4F8F4F9F4F9923A9F0F92F00
S1131AD096E9BB279395F695879577956795B7957E
S1131AE0F111F8CFFAF4BB0F11F460FF1BC06F5F64
S1131AF07F4F8F4F9F4F16C0882311F096E911C076
S1131B00772321F09EE8872F762F05C0662371F096
S1131B1096E8862F70E060E02AF09A95660F771FAA
S1131B20881FDAF7880F9695879597F9089597F99E
S1131B309F6780E870E060E008959FEF80EC08956F
S1131B4000240A9416161706180609060895002498
S1131B500A9412161306140605060895092E039412
S1131B60000C11F4882352F0BB0F40F4BF2B11F486
S1131B7060FF04C06F5F7F4F8F4F9F4F089557FDE5
S1131B809058440F551F59F05F3F71F04795880FE7
S1131B9097FB991F61F09F3F79F08795089512167E
S1131BA013061406551FF2CF4695F1DF08C016162A
S1131BB017061806991FF1CF8695710561050894DB
S1131BC00895E894BB2766277727CB0197F90895F2
S1131BD00BD0C4CFB5DF28F0BADF18F0952309F095
S1131BE0A6CFABCF1124EECFCADFA0F3959FD1F3DC
S1131BF0950F50E0551F629FF001729FBB27F00DB7
S1131C00B11D639FAA27F00DB11DAA1F649F66270B
S1131C10B00DA11D661F829F2227B00DA11D621F5A
S1131C20739FB00DA11D621F839FA00D611D221F14
S1131C30749F3327A00D611D231F849F600D211DF8
S1131C40822F762F6A2F11249F5750408AF0E1F09B
S1131C5088234AF0EE0FFF1FBB1F661F771F881FE4
S1131C6091505040A9F79E3F510570F060CFAACF24
S1131C705F3FECF3983EDCF3869577956795B795CF
S1131C80F795E7959F5FC1F7FE2B880F911D9695F9
S1131C90879597F90895FA01EE0FFF1F30962105F5
S1131CA0310599F16115710561F48038BFE39B0733
S1131CB049F168949038810561F08038BFEF9B0743
S1131CC041F0992342F5FF3FE1053105210511F16A
S1131CD0E8940894E795D901AA2329F4AB2FBE2FE1
S1131CE0F85FD0F310C0FF5F70F4A695E0F7F73902
S1131CF050F019F0FF3A38F49F779F930CD00F906F
S1131D0007FC905808953EF018CF60E070E080E83A
S1131D109FE308954FE79F775F934F933F932F93EC
S1131D209ED02F913F914F915F9152DF05C019F4DE
S1131D300EF0FDCE46CF01CF2ADFC8F39638C0F7A8
S1131D4007F80F92E8942BE33AEA48EB5FE74EDF9B
S1131D500F920F920F924DB75EB70F92C0D0E8ED7D
S1131D60F0E016D04F915F91EF91FF91E595EE1F52
S1131D70FF1F49F0FE57E0684427EE0F441FFA9511
S1131D80E1F74195550B32D00F9007FE26C0089518
S1131D90DF93CF931F930F93FF92EF92DF927B0118
S1131DA08C01689405C0DA2EEF011EDFFE01E89471
S1131DB0A5912591359145915591AEF3EF018EDDB5
S1131DC0FE019701A801DA9479F7DF90EF90FF9074
S1131DD00F911F91CF91DF9108959B01AC0160E0B9
S1131DE070E080E89FE3CDCDA2CEACC0D0DEE8F3B6
S1131DF09923D9F3940F511DBBF39150504094F0A3
S1131E0059F0882332F0660F771F881F9150504095
S1131E10C1F79E3F510544F7880F911D969587950C
S1131E2097F908955F3FACF0983E9CF0BB278695E8
S1131E3077956795B79508F4B1609395C1F7BB0F93
S1131E4058F711F460FFE8CF6F5F7F4F8F4F9F4FBC
S1131E50E3CFB8CE0EF076C070CE689468CE97DE2D
S1131E60C8F39923D1F3C6F3DF93CF931F930F9352
S1131E70FF92C92FDD2788232AF02197660F771F49
S1131E80881FDAF720E030E040E85FEB9FE3883911
S1131E9020F0803E30F021968F770FDDE0E0F1E016
S1131EA003C00BDDEDE2F1E073DF8B01BE01EC0159
S1131EB0FB2E6F5771097595771F880B990BFCDD05
S1131EC028E132E741E35FE38FDEAF2D9801AE01F5
S1131ED0FF900F911F91CF91DF9100DD3FCEFA016A
S1131EE0DC01AA0FBB1F9B01AC01BF5728F42227BA
S1131EF03327442750781FC0B75188F4AB2F0024F0
S1131F00469537952795011CA395D2F3002069F0D7
S1131F10220F331F441FB395DAF30DD0CDCC6130BB
S1131F207105A0E88A07B94630F49B01AC01662725
S1131F30772788279078309621F020833183428355
S1131F40538308959F3F31F0915020F487957795FE
S1131F506795B795880F911D9695879597F908957C
S1131F60EE0FFF1F0024001C0BBE0790F691E02D1E
S1131F700994F999FECF92BD81BDF89A992780B54D
S1131F800895A6E1B0E044E050E018C0262FF99986
S1131F90FECF1FBA92BD81BD20BD0FB6F894FA9A48
S1131FA0F99A0FBE01960895242FF1DF252FEFDF54
S1131FB000C0ECDF272FEBCFDC01CB01FC01F9994A
S1131FC0FECF06C0F2BDE1BDF89A319600B40D9281
S10F1FD041505040B8F70895F894FFCF3A
S1131FDC010000005F02540249023E02330228024F
S1131FEC000E091E1E090E0000040E1F040404003A
S1131FFC412E205472616E73616374696F6E730049
S113200C422E2053657474696E677300656E746533
S113201C722070696E3A200041202020202042203A
S113202C2020202020202020202020006368616EA6
S113203C67653A2020202020202020202000456E97
S113204C746572205061796D656E743A202020009D
S113205C446F6E6520207C20204164644974656D56
S113206C2041202020207C202020204200202041C0
S113207C202020207C20202042202020202020638F
S113208C6F6465207C2020206974656D7300656E17
S113209C746572206E657720636F64653A20200046
S11320AC41202020202042202020202020202020DD
S11320BC2020002073657474696E6773207C206D16
S11320CC656E75202020202000456E7465722050AA
S11320DC726963653A202020202000207365747493
S11320EC696E6773207C206D656E7520202020201E
S10B20FC2020202020202000F8
S9030000FC
