S00F0000656570726F6D502E737265633D
S113000099C00000B4C00000B2C00000B0C000003D
S1130010AEC00000ACC00000AAC00000A8C0000030
S1130020A6C00000A4C00000A2C00000A0C0000040
S11300309EC00000D2C000009AC0000098C000001A
S113004096C0000094C0000092C0000090C0000060
S11300508EC000008CC000008AC0000088C0000070
S113006086C0000084C0000082C0000080C0000080
S11300707EC000007CC000007AC0000078C0000090
S113008076C0000074C0000072C00000D801DA011C
S1130090DC01DE01E001E201E401E601E80108021D
S11300A0F401F601F801FA01FC01FE01000202026A
S11300B0040207634236B79BD8A71A39685618AEAC
S11300C0BAAB558C1D3CB7CC5763BD6DEDFD753E89
S11300D0F6177231BF000000803F08000000BE9296
S11300E02449123EABAAAA2ABECDCCCC4C3E000079
S11300F00080BEABAAAAAA3E00000000BF00000018
S1130100803F0000000000084178D3BB4387D1132F
S11301103D190E3CC3BD4282AD2B3E68EC8276BED7
S1130120D98FE1A93E4C80EFFFBE01C4FF7F3F00A1
S11301300000000011241FBECFEFD0E4DEBFCDBF0E
S113014011E0A0E0B1E0E8E2F0E100E00BBF02C0A2
S113015007900D92A835B107D9F721E0A8E5B1E0E1
S113016001C01D92A837B207E1F7B9D35BC748CFE6
S11301706093000170930101809302019093030145
S11301806093710170937201809373019093740171
S113019008958BE0809381008DE790E0909389002F
S11301A08093880082E080936F0010928500109203
S11301B084008091000190910101A0910201B0910D
S11301C003018093710190937201A0937301B09322
S11301D074018FB780688FBF08951F920F920FB676
S11301E00F9211248F939F93AF93BF9380917101CA
S11301F090917201A0917301B09174010197A109CA
S1130200B1098093710190937201A0937301B0932B
S11302107401892B8A2B8B2B99F481E080937501CF
S11302208091000190910101A0910201B09103011C
S11302308093710190937201A0937301B093740140
S1130240BF91AF919F918F910F900FBE0F901F9010
S11302501895181619065CF008950000215031090C
S1130260E1F74F5F5F4F8417950719F4089540E055
S113027050E027E033E0F1CF10988BB9119A0000D9
S1130280119882E090E0E5CF089581E0F5CF0895DC
S1130290813118F48158F0CF08958155EDCF089538
S11302A084E690E0D6DF88E3E7DF86E0E5DF8FE0F1
S11302B0E3DF81E0E1DF8AE090E0CBCF0895109A9C
S11302C08BB9119A0000119881E090E0C2CF089593
S11302D00F931F93CF93DF93182FEB01D6DF888101
S11302E0882351F001E0010F812FD2DF8991E7DFEC
S11302F0102F88818111F6CFDF91CF911F910F913B
S113030008958FEE88B90000309B29C0319B29C025
S1130310329B29C0339B29C08FED88B90000309BE4
S113032026C0319B26C0329B26C0339B26C08FEB50
S113033088B90000309B23C0319B23C0329B23C06B
S1130340339B23C08FE788B90000309B20C0319BCA
S113035020C0329B20C0339B20C080E0089581E3FD
S1130360089584E3089587E308958AE2089582E373
S1130370089585E3089588E3089580E3089583E369
S1130380089586E3089589E3089583E2089581E456
S1130390089582E4089583E4089584E4089590E040
S11303A0FC01F197E930F105A8F4EA5BFF4F06C6BA
S11303B081E0089582E0089583E0089584E008953B
S11303C085E0089586E0089587E0089588E008951B
S11303D089E0089580E0089590E08A309105B0F4B2
S11303E0FC01E15BFF4FEAC581E3089582E30895D0
S11303F083E3089584E3089585E3089586E30895E7
S113040087E3089588E3089589E3089580E00895D3
S113041080E30895843638F48A3038F491E0811109
S113042005C090E003C093E001C092E0892F0895D5
S11304308F929F92AF92BF92CF92DF92EF92FF92F0
S11304400F931F93CF93DF9380917601823009F449
S113045051C028F4882361F08130A9F163C084304D
S113046009F458C008F452C0853009F44CC05AC08D
S113047081E08093760164E071E02ADF10926901E3
S11304801092680110926701109266011092650142
S11304901092640110926001109261011092620145
S11304A01092630110925C0110925D0110925E0142
S11304B010925F0110925B0110925A01109259013F
S11304C01092580132C01DDF80937701813441F4CA
S11304D082E08093760165E271E081E0F9DE25C077
S11304E0823419F583E08093760160E471E081E061
S11304F0EFDE1BC006DF809377018332B1F485E021
S1130500809376011DC010927601DCC184E0809353
S11305107601D8C1F6DE80937701833231F41092EC
S11305207601D0C110927601CDC1809176018330DD
S113053009F4E0C0853021F0823009F0C3C107C05E
S11305408091680190E0181619063CF167C0D9DE65
S1130550809377018823C9F08332B9F09FEB980F19
S1130560943098F0ACDE909177019A3221F4809126
S113057069018093680180916901E82FF0E0E659F0
S1130580FE4F90838F5F8093690180916801815051
S1130590809365011092640195C10AE611E0E12C93
S11305A0F12CF80181918F01FADEC82F8093640148
S11305B06091650170E080E090E0AAD29B01AC01FB
S11305C060E070E080E291E494D34B015C016C2F15
S11305D070E080E090E09ED2A501940127D34B0106
S11305E05C016091670170E080E090E093D29B0130
S11305F0AC01C501B4018FD15FD2609367018091D2
S11306006501815080936501FFEFEF1AFF0A809125
S1130610680190E0E816F9060CF4C3CF21E02093BA
S113062065017C012FEFE21AF20A2091690130E0A2
S1130630E216F3060CF040C08C0105591E4FF80178
S113064081918F01ACDEC82F8093640160916501B4
S113065070E080E090E05CD29B01AC0160E070E06F
S113066080E291E446D34B015C016C2F70E080E0A2
S113067090E050D2A5019401D9D24B015C01609164
S1130680660170E080E090E045D29B01AC01C501B9
S1130690B40141D111D2609366018091650181500A
S11306A080936501FFEFEF1AFF0A8091690190E0E2
S11306B0E816F9060CF4C3CF6091660170E080E09F
S11306C090E026D220E030E048EC52E488D16B017F
S11306D07C016091670170E080E090E019D29B0199
S11306E0AC01C701B60117D1AB01BC0181E090E0B8
S11306F073D4E8C081E090E06AD44B015C0160935C
S11307005C0170935D0180935E0190935F01CFD192
S11307106B017C01072E000C880B990BFBD19B010C
S1130720AC01C501B401F6D020E030E048EC52E45D
S11307307DD2609360017093610180936201909314
S11307406301CC2DC0926701B2D160936601C336B8
S113075018F0C394C0926701809167015BDE8093B7
S113076068019FEF980F90936501882309F455C0A1
S1130770C0E0D0E06091670170E080E090E0CAD111
S11307806B017C016091650170E080E090E0C0D174
S11307909B01AC0160E070E080E291E4AAD29B018D
S11307A0AC01C701B6011BD187D1162F6091670137
S11307B070E080E090E0AED16B017C016091650156
S11307C070E080E090E0A4D19B01AC0160E070E0B7
S11307D080E291E48ED24B015C01612F70E080E0F5
S11307E090E098D1A501940121D29B01AC01C701ED
S11307F0B60190D061D160936701812FEDDD5FDD9B
S113080080916501815080936501219680916801F2
S113081090E0C817D9070CF4ADCF81E0809365014F
S11308208EE24DDDC2E0D0E06091660170E080E0D0
S113083090E070D16B017C016091650170E080E013
S113084090E066D19B01AC0160E070E080E291E44D
S113085050D29B01AC01C701B601C1D02DD1162FD6
S11308606091660170E080E090E054D16B017C01FE
S11308706091650170E080E090E04AD19B01AC0199
S113088060E070E080E291E434D24B015C01612FBE
S113089070E080E090E03ED1A5019401C7D19B01B6
S11308A0AC01C701B60136D007D160936601812F30
S11308B093DD05DD80916501815080936501219769
S11308C009F0B2CFDF91CF911F910F91FF90EF907C
S11308D0DF90CF90BF90AF909F908F9008958FEF4F
S11308E081B912B88AB91BB880EF87B98FE088B98B
S11308F068EC70E080E090E03BDC4BDCD1DCC5DCF4
S11309001092760195DD809175018823E1F31092B0
S11309107501F8CF5058BB27AA270ED04DC13ED140
S113092030F043D120F031F49F3F11F41EF433C171
S11309300EF4E095E7FB29C1E92F4FD180F3BA17F4
S1130940620773078407950718F071F49EF567C171
S11309500EF4E0950B2EBA2FA02D0B01B9019001D6
S11309600C01CA01A0011124FF27591B99F0593F1A
S113097050F4503E68F11A16F040A22F232F342F62
S11309804427585FF3CF469537952795A795F040B0
S11309905395C9F77EF41F16BA0B620B730B840BC5
S11309A0BAF09150A1F0FF0FBB1F661F771F881F7D
S11309B0C2F70EC0BA0F621F731F841F48F48795D5
S11309C077956795B795F7959E3F08F0B3CF9395C4
S11309D0880F08F09927EE0F9795879508950CD006
S11309E0EBC0E3D040F0DAD030F021F45F3F19F0EF
S11309F0CCC0511115C1CFC0F0D098F39923C9F3DD
S1130A005523B1F3951B550BBB27AA276217730710
S1130A10840738F09F5F5F4F220F331F441FAA1FC4
S1130A20A9F333D00E2E3AF0E0E830D09150504084
S1130A30E695001CCAF729D0FE2F27D0660F771F32
S1130A40881FBB1F261737074807AB07B0E809F014
S1130A50BB0B802DBF01FF2793585F4F2AF09E3FA9
S1130A60510568F092C0DCC05F3FECF3983EDCF3C4
S1130A70869577956795B795F7959F5FC9F7880F22
S1130A80911D9695879597F90895E1E0660F771F74
S1130A90881FBB1F621773078407BA0720F0621B05
S1130AA0730B840BBA0BEE1F88F7E095089504D0FE
S1130AB06894B111B5C0089598D088F09F5790F00C
S1130AC0B92F9927B751A0F0D1F0660F771F881F6F
S1130AD0991F1AF0BA95C9F712C0B13081F09FD0AE
S1130AE0B1E008959CC0672F782F8827B85F39F04C
S1130AF0B93FCCF3869577956795B395D9F73EF4CE
S1130B0090958095709561957F4F8F4F9F4F089575
S1130B10E89409C097FB3EF4909580957095619593
S1130B207F4F8F4F9F4F9923A9F0F92F96E9BB2749
S1130B309395F695879577956795B795F111F8CFC5
S1130B40FAF4BB0F11F460FF1BC06F5F7F4F8F4F30
S1130B509F4F16C0882311F096E911C0772321F026
S1130B609EE8872F762F05C0662371F096E8862FBE
S1130B7070E060E02AF09A95660F771F881FDAF715
S1130B80880F9695879597F9089597F99F6780E858
S1130B9070E060E008959FEF80EC089500240A94CB
S1130BA01616170618060906089500240A94121644
S1130BB01306140605060895092E0394000C11F477
S1130BC0882352F0BB0F40F4BF2B11F460FF04C024
S1130BD06F5F7F4F8F4F9F4F089557FD9058440F7D
S1130BE0551F59F05F3F71F04795880F97FB991F88
S1130BF061F09F3F79F08795089512161306140645
S1130C00551FF2CF4695F1DF08C0161617061806D1
S1130C10991FF1CF86957105610508940895E894AC
S1130C20BB2766277727CB0197F908950BD0C4CF4C
S1130C30B5DF28F0BADF18F0952309F0A6CFABCFC3
S1130C401124EECFCADFA0F3959FD1F3950F50E0A6
S1130C50551F629FF001729FBB27F00DB11D639F6A
S1130C60AA27F00DB11DAA1F649F6627B00DA11D10
S1130C70661F829F2227B00DA11D621F739FB00DB6
S1130C80A11D621F839FA00D611D221F749F332726
S1130C90A00D611D231F849F600D211D822F762FBF
S1130CA06A2F11249F5750408AF0E1F088234AF0BC
S1130CB0EE0FFF1FBB1F661F771F881F9150504008
S1130CC0A9F79E3F510570F060CFAACF5F3FECF3C8
S1130CD0983EDCF3869577956795B795F795E795F4
S1130CE09F5FC1F7FE2B880F911D9695879597F905
S1130CF00895FA01EE0FFF1F30962105310599F191
S1130D006115710561F48038BFE39B0749F168946C
S1130D109038810561F08038BFEF9B0741F099233B
S1130D2042F5FF3FE1053105210511F1E8940894EE
S1130D30E795D901AA2329F4AB2FBE2FF85FD0F38E
S1130D4010C0FF5F70F4A695E0F7F73950F019F082
S1130D50FF3A38F49F779F930CD00F9007FC90587C
S1130D6008953EF018CF60E070E080E89FE30895B6
S1130D704FE79F775F934F933F932F939ED02F918D
S1130D803F914F915F9152DF05C019F40EF0FDCEF3
S1130D9046CF01CF2ADFC8F39638C0F707F80F9281
S1130DA0E8942BE33AEA48EB5FE74EDF0F920F92A9
S1130DB00F924DB75EB70F92C0D0E2EBF0E016D0C1
S1130DC04F915F91EF91FF91E595EE1FFF1F49F061
S1130DD0FE57E0684427EE0F441FFA95E1F741956A
S1130DE0550B32D00F9007FE26C00895DF93CF93A2
S1130DF01F930F93FF92EF92DF927B018C01689413
S1130E0005C0DA2EEF011EDFFE01E894A5912591BD
S1130E10359145915591AEF3EF018EDDFE019701B9
S1130E20A801DA9479F7DF90EF90FF900F911F916A
S1130E30CF91DF9108959B01AC0160E070E080E800
S1130E409FE3CDCDA2CEACC0D0DEE8F39923D9F395
S1130E50940F511DBBF39150504094F059F08823E6
S1130E6032F0660F771F881F91505040C1F79E3FA4
S1130E70510544F7880F911D9695879597F9089524
S1130E805F3FACF0983E9CF0BB27869577956795BD
S1130E90B79508F4B1609395C1F7BB0F58F711F4F7
S1130EA060FFE8CF6F5F7F4F8F4F9F4FE3CFB8CE88
S1130EB00EF076C070CE689468CE97DEC8F399239E
S1130EC0D1F3C6F3DF93CF931F930F93FF92C92FF0
S1130ED0DD2788232AF02197660F771F881FDAF70A
S1130EE020E030E040E85FEB9FE3883920F0803E6B
S1130EF030F021968F770FDDEAEDF0E003C00BDDD3
S1130F00E7E0F1E073DF8B01BE01EC01FB2E6F57CC
S1130F1071097595771F880B990BFCDD28E132E781
S1130F2041E35FE38FDEAF2D9801AE01FF900F9197
S1130F301F91CF91DF9100DD3FCEFA01DC01AA0FB2
S1130F40BB1F9B01AC01BF5728F42227332744273A
S1130F5050781FC0B75188F4AB2F002446953795BD
S1130F602795011CA395D2F3002069F0220F331FAB
S1130F70441FB395DAF30DD0CDCC61307105A0E8F0
S1130F808A07B94630F49B01AC0166277727882786
S1130F909078309621F020833183428353830895DF
S1130FA09F3F31F0915020F4879577956795B795D9
S1130FB0880F911D9695879597F90895EE0FFF1F59
S1130FC00024001C0BBE0790F691E02D0994A6E1C5
S1130FD0B0E044E050E00AC0242F17D0252F15D0EC
S1130FE000C012D0272F11C0DC01CB01FC01F999FC
S1130FF0FECF06C0F2BDE1BDF89A319600B40D9261
S113100041505040B8F70895262FF999FECF1FBAE2
S113101092BD81BD20BD0FB6F894FA9AF99A0FBE1D
S10B102001960895F894FFCF36
S11310280100000041203D2057726974652020208A
S1131038202020202020202020202042203D205233
S11310486561642000656E746572207072696365F9
S11310583A2020202020202020202020202020008A
S113106870726963652069733A202020202020204B
S10B107820202020202020008C
S9030000FC
