S01700006A6F79737469636B776F726B696E672E737265639C
S113000045C0000060C000005EC000005CC000008D
S11300105AC0000058C0000056C0000054C0000080
S113002052C0000050C000004EC000004CC0000090
S11300304AC000007EC0000046C0000044C000006A
S113004042C0000040C000003EC000003CC00000B0
S11300503AC0000038C0000036C0000034C00000C0
S113006032C0000030C000002EC000002CC00000D0
S11300702AC0000028C0000026C0000024C00000E0
S113008022C0000020C000001EC0000011241FBEBA
S1130090CFEFD0E4DEBFCDBF11E0A0E0B1E0EAEDE8
S11300A0F2E000E00BBF02C007900D92AA35B10741
S11300B0D9F721E0AAE5B1E001C01D92AF35B2073E
S11300C0E1F7D1D008C19CCF609300017093010186
S11300D0809302019093030160935A0170935B0132
S11300E080935C0190935D0108958BE0809381007F
S11300F08DE790E0909389008093880082E080935C
S11301006F001092850010928400809100019091FC
S11301100101A0910201B091030180935A019093CF
S11301205B01A0935C01B0935D018FB780688FBFC2
S113013008951F920F920FB60F9211248F939F93DD
S1130140AF93BF9380915A0190915B01A0915C01A0
S1130150B0915D010197A109B10980935A0190936F
S11301605B01A0935C01B0935D01892B8A2B8B2BDF
S113017099F481E080935E018091000190910101E6
S1130180A0910201B091030180935A0190935B0105
S1130190A0935C01B0935D01BF91AF919F918F914A
S11301A00F900FBE0F901F901895181619065CF04B
S11301B00895000021503109E1F74F5F5F4F841724
S11301C0950719F4089540E050E027E033E0F1CFBB
S11301D0589885B9599A0000599882E090E0E5CF83
S11301E0089581E0F5CF0895813118F48158F0CF56
S11301F008958155EDCF089584E690E0D6DF88E335
S1130200E7DF86E0E5DF8FE0E3DF81E0E1DF8AE03E
S113021090E0CBCF0895589A85B9599A000059981F
S113022081E090E0C2CF08950F931F93CF93DF93A3
S1130230182FEB01D6DF8881882351F001E0010FEC
S1130240812FD2DF8991E7DF102F88818111F6CFCA
S1130250DF91CF911F910F910895EAE7F0E080813B
S1130260806E8083089511B88FEF82B98AB91BB864
S113027084B915B880EF87B98FE088B9EEDFBCDFA9
S113028068EE73E080E090E01FDF2FDF90E0C0E0D5
S1130290D2E091110AC066E271E081E0C5DF8CE72B
S11302A0BADF81E2A1DF91E00FC0913051F463E441
S11302B071E081E0B9DF8CE7AEDF81E295DF9D2F4D
S11302C003C0923009F49C2F80915E018823E1F3EE
S10D02D0C0935E01DECFF894FFCF67
S11302DA0100000050555348454420444F574E00EE
S11302EA505553484544205550004E4F204D4F56C3
S11302FA454D454E54002073657474696E677320C6
S113030A7C206D656E75202020202020202020204E
S113031A2020002073657474696E6773207C206DD5
S10D032A656E7520202020202000BD
S9030000FC
