:1000000099C00000B4C00000B2C00000B0C0000041
:10001000AEC00000ACC00000AAC00000A8C0000034
:10002000A6C00000A4C00000A2C00000A0C0000044
:100030009EC00000D2C000009AC0000098C000001E
:1000400096C0000094C0000092C0000090C0000064
:100050008EC000008CC000008AC0000088C0000074
:1000600086C0000084C0000082C0000080C0000084
:100070007EC000007CC000007AC0000078C0000094
:1000800076C0000074C0000072C00000B701B90162
:10009000BB01BD01BF01C101C301C501C701E7012A
:1000A000D301D501D701D901DB01DD01DF01E10178
:1000B000E30107634236B79BD8A71A39685618AED2
:1000C000BAAB558C1D3CB7CC5763BD6DEDFD753E8D
:1000D000F6177231BF000000803F08000000BE929A
:1000E0002449123EABAAAA2ABECDCCCC4C3E00007D
:1000F0000080BEABAAAAAA3E00000000BF0000001C
:10010000803F0000000000084178D3BB4387D11333
:100110003D190E3CC3BD4282AD2B3E68EC8276BEDB
:10012000D98FE1A93E4C80EFFFBE01C4FF7F3F00A5
:100130000000000011241FBECFEFD0E4DEBFCDBF12
:1001400011E0A0E0B1E0E8E2FDE000E00BBF02C09A
:1001500007900D92A430B107D9F721E0A4E0B1E0F7
:1001600001C01D92A930B207E1F741D1DBC548CFEC
:100170006093000170930101809302019093030149
:100180006093040170930501809306019093070129
:1001900008958BE0809381008DE790E09093890033
:1001A0008093880082E080936F0010928500109207
:1001B00084008091000190910101A0910201B09111
:1001C00003018093040190930501A0930601B0936D
:1001D00007018FB780688FBF08951F920F920FB6E7
:1001E0000F9211248F939F93AF93BF93809104013B
:1001F00090910501A0910601B09107010197A10915
:10020000B1098093040190930501A0930601B09376
:100210000701892B8A2B8B2B99F481E080930801AD
:100220008091000190910101A0910201B091030120
:100230008093040190930501A0930601B0930701F8
:10024000BF91AF919F918F910F900FBE0F901F9014
:100250001895181619065CF0089500002150310910
:10026000E1F74F5F5F4F8417950719F4089540E059
:1002700050E027E033E0F1CF10988BB9119A0000DD
:10028000119882E090E0E5CF089581E0F5CF0895E0
:1002900084E690E0DEDF88E3EFDF86E0EDDF8FE0ED
:1002A000EBDF81E0E9DF8AE090E0D3CF0895109A98
:1002B0008BB9119A0000119881E090E0CACF08959F
:1002C0008FEE88B90000309B29C0319B29C0329B3A
:1002D00029C0339B29C08FED88B90000309B26C010
:1002E000319B26C0329B26C0339B26C08FEB88B93A
:1002F0000000309B23C0319B23C0329B23C0339B23
:1003000023C08FE788B90000309B20C0319B20C0FC
:10031000329B20C0339B20C080E0089581E3089584
:1003200084E3089587E308958AE2089582E30895B7
:1003300085E3089588E3089580E3089583E30895AD
:1003400086E3089589E3089583E2089581E408959A
:1003500082E4089583E4089584E4089590E0FC0124
:10036000F197E930F105A8F4EA5BFF4FD2C481E0D0
:10037000089582E0089583E0089584E0089585E07B
:10038000089586E0089587E0089588E0089589E05B
:10039000089580E0089590E08A309105B0F4FC0162
:1003A000E15BFF4FB6C481E3089582E3089583E3E0
:1003B000089584E3089585E3089586E3089587E327
:1003C000089588E3089589E3089580E0089580E31F
:1003D0000895843638F48A3038F491E0811105C0EC
:1003E00090E003C093E001C092E0892F0895CF937D
:1003F000DF93CDB7DEB72B970FB6F894DEBF0FBEF5
:10040000CDBF8FEF81B912B88AB91BB880EF87B919
:100410008FE088B9FE01319687E0DF011D928A9551
:10042000E9F736DF32DF68EC70E080E090E0A0DED4
:10043000B0DE10E0312C212C43DF082F882309F493
:10044000FAC0833209F4FEC032DF0A3209F4132DF8
:10045000E1E0F0E0EC0FFD1FE30DF11D00833394AC
:10046000EAC0F60181916F0179DF182F602F70E0EB
:1004700080E090E0F8D19B01AC0160E070E080E2A8
:1004800091E4E2D24B015C01612F70E080E090E0EA
:10049000ECD1A501940175D24B015C01672D70E090
:1004A00080E090E0E2D19B01AC01C501B401E3D052
:1004B000AED1762E0150A8F6FFEFEF1AFF0AA32C5B
:1004C000B12CEA14FB0414F044C0712CCC24C39466
:1004D000D12CCC0EDD1ECE0CDF1C11E0022DD6017E
:1004E0008D916D013BDF682E612F70E080E090E020
:1004F000BAD19B01AC0160E070E080E291E4A4D24B
:10050000688779878A879B87662D70E080E090E016
:10051000ACD1288539854A855B8533D26887798750
:100520008A879B87602F70E080E090E09ED19B01DE
:10053000AC01688579858A859B859DD068D1062F19
:100540001150BFEFEB1AFB0AEA14FB040CF4C7CFFF
:1005500001C0022DE2E6E71508F47394872D39DF18
:10056000182FFF24FA94F80EA82EB12C1A141B048D
:100570000CF03BC0C12CD12C672D70E080E090E0E6
:1005800074D12B013C016F2D70E080E090E06BD1C5
:100590009B01AC0160E070E080E291E455D2688795
:1005A00079878A879B879B01AC01C301B201C7D0C1
:1005B0002ED1E62E70E080E090E057D12885398575
:1005C0004A855B85DED19B01AC01C301B20152D0EB
:1005D0001ED1762E8E2DDFDE6ADEFA94FFEFCF1A63
:1005E000DF0ACA14DB0409F0C7CF8EE260DE602F99
:1005F00070E080E090E039D12B013C0120E030E058
:1006000040E251E49CD003D1F62E70E080E090E00F
:100610002CD120E030E040E251E4B3D19B01AC01A9
:10062000C301B20127D0F3D0062F8F2DB4DE3FDEF9
:10063000802FB1DE3CDE809108018823E1F3209217
:100640000801FACE0FEF010FE12EF12C1E141F044A
:100650002CF4CE0101966C01712C03CF9FEFE91AA7
:10066000F90AA32CB12CEA14FB040CF42ECF022DB2
:10067000712C74CF5058BB27AA270ED048C139D14E
:1006800030F03ED120F031F49F3F11F41EF42EC122
:100690000EF4E095E7FB24C1E92F4AD180F3BA17A5
:1006A000620773078407950718F071F49EF562C11D
:1006B0000EF4E0950B2EBA2FA02D0B01B90190017D
:1006C0000C01CA01A0011124FF27591B99F0593FC1
:1006D00050F4503E68F11A16F040A22F232F342F09
:1006E0004427585FF3CF469537952795A795F04057
:1006F0005395C9F77EF41F16BA0B620B730B840B6C
:10070000BAF09150A1F0FF0FBB1F661F771F881F23
:10071000C2F70EC0BA0F621F731F841F48F487957B
:1007200077956795B795F7959E3F08F0B3CF93956A
:10073000880F08F09927EE0F9795879508950CD0AC
:10074000E6C0DED040F0D5D030F021F45F3F19F0A4
:10075000C7C0511110C1CAC0EBD098F39923C9F397
:100760005523B1F3951B550BBB27AA2762177307B7
:10077000840738F09F5F5F4F220F331F441FAA1F6B
:10078000A9F333D00E2E3AF0E0E830D0915050402B
:10079000E695001CCAF729D0FE2F27D0660F771FD9
:1007A000881FBB1F261737074807AB07B0E809F0BB
:1007B000BB0B802DBF01FF2793585F4F2AF09E3F50
:1007C000510568F08DC0D7C05F3FECF3983EDCF375
:1007D000869577956795B795F7959F5FC9F7880FC9
:1007E000911D9695879597F90895E1E0660F771F1B
:1007F000881FBB1F621773078407BA0720F0621BAC
:10080000730B840BBA0BEE1F88F7E095089598D010
:1008100088F09F5790F0B92F9927B751A0F0D1F0E9
:10082000660F771F881F991F1AF0BA95C9F712C073
:10083000B13081F09FD0B1E008959CC0672F782F30
:100840008827B85F39F0B93FCCF3869577956795DF
:10085000B395D9F73EF490958095709561957F4F4B
:100860008F4F9F4F0895E89409C097FB3EF49095F1
:100870008095709561957F4F8F4F9F4F9923A9F079
:10088000F92F96E9BB279395F69587957795679508
:10089000B795F111F8CFFAF4BB0F11F460FF1BC04C
:1008A0006F5F7F4F8F4F9F4F16C0882311F096E9DF
:1008B00011C0772321F09EE8872F762F05C066238D
:1008C00071F096E8862F70E060E02AF09A95660F46
:1008D000771F881FDAF7880F9695879597F90895FF
:1008E00097F99F6780E870E060E008959FEF80ECE3
:1008F000089500240A941616170618060906089586
:1009000000240A9412161306140605060895092EEB
:100910000394000C11F4882352F0BB0F40F4BF2B5A
:1009200011F460FF04C06F5F7F4F8F4F9F4F08959A
:1009300057FD9058440F551F59F05F3F71F0479590
:10094000880F97FB991F61F09F3F79F08795089575
:10095000121613061406551FF2CF4695F1DF08C094
:10096000161617061806991FF1CF869571056105B1
:1009700008940895E894BB2766277727CB0197F959
:1009800008950BD0C4CFB5DF28F0BADF18F0952357
:1009900009F0A6CFABCF1124EECFCADFA0F3959F0D
:1009A000D1F3950F50E0551F629FF001729FBB2756
:1009B000F00DB11D639FAA27F00DB11DAA1F649F02
:1009C0006627B00DA11D661F829F2227B00DA11DB5
:1009D000621F739FB00DA11D621F839FA00D611D3B
:1009E000221F749F3327A00D611D231F849F600D5C
:1009F000211D822F762F6A2F11249F5750408AF095
:100A0000E1F088234AF0EE0FFF1FBB1F661F771F20
:100A1000881F91505040A9F79E3F510570F060CF5C
:100A2000AACF5F3FECF3983EDCF386957795679508
:100A3000B795F795E7959F5FC1F7FE2B880F911D3E
:100A40009695879597F90895FA01EE0FFF1F309656
:100A50002105310599F16115710561F48038BFE315
:100A60009B0749F168949038810561F08038BFEFA9
:100A70009B0741F0992342F5FF3FE1053105210530
:100A800011F1E8940894E795D901AA2329F4AB2F32
:100A9000BE2FF85FD0F310C0FF5F70F4A695E0F7AB
:100AA000F73950F019F0FF3A38F49F779F930CD044
:100AB0000F9007FC905808953EF018CF60E070E06A
:100AC00080E89FE308954FE79F775F934F933F93AD
:100AD0002F939ED02F913F914F915F9152DF05C090
:100AE00019F40EF0FDCE46CF01CF2ADFC8F39638B9
:100AF000C0F707F80F92E8942BE33AEA48EB5FE778
:100B00004EDF0F920F920F924DB75EB70F92C0D08B
:100B1000E2EBF0E016D04F915F91EF91FF91E595F8
:100B2000EE1FFF1F49F0FE57E0684427EE0F441FF9
:100B3000FA95E1F74195550B32D00F9007FE26C08C
:100B40000895DF93CF931F930F93FF92EF92DF925D
:100B50007B018C01689405C0DA2EEF011EDFFE01D7
:100B6000E894A5912591359145915591AEF3EF010A
:100B700093DDFE019701A801DA9479F7DF90EF90F9
:100B8000FF900F911F91CF91DF9108959B01AC01D0
:100B900060E070E080E89FE3D2CDA2CEACC0D0DEB2
:100BA000E8F39923D9F3940F511DBBF391505040B2
:100BB00094F059F0882332F0660F771F881F915008
:100BC0005040C1F79E3F510544F7880F911D9695FF
:100BD000879597F908955F3FACF0983E9CF0BB274E
:100BE000869577956795B79508F4B1609395C1F7A9
:100BF000BB0F58F711F460FFE8CF6F5F7F4F8F4F47
:100C00009F4FE3CFB8CE0EF076C070CE689468CE1A
:100C100097DEC8F39923D1F3C6F3DF93CF931F93E5
:100C20000F93FF92C92FDD2788232AF02197660FA3
:100C3000771F881FDAF720E030E040E85FEB9FE3A2
:100C4000883920F0803E30F021968F7714DDEAED70
:100C5000F0E003C010DDE7E0F1E073DF8B01BE01DF
:100C6000EC01FB2E6F5771097595771F880B990B57
:100C7000FCDD28E132E741E35FE38FDEAF2D980131
:100C8000AE01FF900F911F91CF91DF9105DD3FCE17
:100C9000FA01DC01AA0FBB1F9B01AC01BF5728F46E
:100CA00022273327442750781FC0B75188F4AB2F31
:100CB0000024469537952795011CA395D2F3002073
:100CC00069F0220F331F441FB395DAF30DD0D2CC55
:100CD00061307105A0E88A07B94630F49B01AC0188
:100CE0006627772788279078309621F020833183F4
:100CF0004283538308959F3F31F0915020F48795AC
:100D000077956795B795880F911D9695879597F973
:100D10000895EE0FFF1F0024001C0BBE0790F691F4
:080D2000E02D0994F894FFCFC7
:040D280001000000C6
:00000001FF
