S01100006A6F79737469636B322E7372656371
S113000045C0000060C000005EC000005CC000008D
S11300105AC0000058C0000056C0000054C0000080
S113002052C0000050C000004EC000004CC0000090
S11300304AC0000049C0000046C0000044C000009F
S113004042C0000040C000003EC000003CC00000B0
S11300503AC0000038C0000036C0000034C00000C0
S113006032C0000030C000002EC000002CC00000D0
S11300702AC0000028C0000026C0000024C00000E0
S113008022C0000020C000001EC0000011241FBEBA
S1130090CFEFD0E4DEBFCDBF11E0A0E0B1E0E4EEED
S11300A0F1E000E00BBF02C007900D92A430B1074D
S11300B0D9F721E0A4E0B1E001C01D92AC30B20751
S11300C0E1F786D08DC09CCF1F920F920FB60F928E
S11300D011248F939F93AF93BF93809107019091C5
S11300E00801A0910901B0910A010197A109B10980
S11300F08093070190930801A0930901B0930A012A
S1130100892B8A2B8B2B99F481E080930B018091AE
S1130110000190910101A0910201B091030180932B
S1130120070190930801A0930901B0930A01BF91BC
S1130130AF919F918F910F900FBE0F901F901895C4
S1130140EAE7F0E08081806E8083089580917C00EE
S1130150813019F410927C0007C080917C008111D9
S113016003C081E080937C008091780090917900B5
S113017090930601809305018436910580F42091C3
S11301807C00211104C081E0809304011DC02091F2
S11301907C00213021F482E08093040115C085386D
S11301A0934080F080917C00813021F484E080933E
S11301B004010AC080917C00811104C088E080930E
S11301C0040102C010920401809104018BB90895C6
S11301D011B88FEF82B98AB91BB8B2DFB7DFFECF8F
S10701E0F894FFCFBD
S10701E40100000012
S9030000FC
